{
  "contractName": "InsuranceFund",
  "abi": [
    {
      "anonymous": false,
      "inputs": [
        {
          "indexed": false,
          "name": "user",
          "type": "address"
        },
        {
          "indexed": false,
          "name": "compensation",
          "type": "uint256"
        }
      ],
      "name": "CompensationPaid",
      "type": "event"
    },
    {
      "anonymous": false,
      "inputs": [
        {
          "indexed": false,
          "name": "value",
          "type": "uint256"
        }
      ],
      "name": "FundUpdated",
      "type": "event"
    },
    {
      "constant": true,
      "inputs": [],
      "name": "getFund",
      "outputs": [
        {
          "name": "",
          "type": "uint256"
        }
      ],
      "payable": false,
      "stateMutability": "view",
      "type": "function"
    },
    {
      "constant": false,
      "inputs": [
        {
          "name": "policyHolder_",
          "type": "address"
        },
        {
          "name": "policyContract_",
          "type": "address"
        }
      ],
      "name": "registerPolicy",
      "outputs": [],
      "payable": false,
      "stateMutability": "nonpayable",
      "type": "function"
    },
    {
      "constant": false,
      "inputs": [],
      "name": "removePolicyHolder",
      "outputs": [],
      "payable": false,
      "stateMutability": "nonpayable",
      "type": "function"
    },
    {
      "constant": true,
      "inputs": [],
      "name": "getCompensationsPaid",
      "outputs": [
        {
          "name": "",
          "type": "uint256"
        }
      ],
      "payable": false,
      "stateMutability": "view",
      "type": "function"
    },
    {
      "constant": true,
      "inputs": [],
      "name": "checkCompensation",
      "outputs": [
        {
          "name": "",
          "type": "bool"
        }
      ],
      "payable": false,
      "stateMutability": "view",
      "type": "function"
    },
    {
      "constant": false,
      "inputs": [],
      "name": "withdrawCompensation",
      "outputs": [],
      "payable": false,
      "stateMutability": "nonpayable",
      "type": "function"
    },
    {
      "constant": false,
      "inputs": [
        {
          "name": "compensation",
          "type": "uint256"
        }
      ],
      "name": "payCompensation",
      "outputs": [],
      "payable": false,
      "stateMutability": "nonpayable",
      "type": "function"
    },
    {
      "constant": false,
      "inputs": [],
      "name": "payPremium",
      "outputs": [],
      "payable": true,
      "stateMutability": "payable",
      "type": "function"
    }
  ],
  "bytecode": "0x608060405234801561001057600080fd5b506109be806100206000396000f30060806040526004361061008e576000357c0100000000000000000000000000000000000000000000000000000000900463ffffffff16806329c08ba214610093578063319a50d41461009d5780634480d654146101005780634a1fbb811461012f57806387a15dc91461015a5780638b1753b7146101715780638edd6eb614610188578063deddaae6146101b3575b600080fd5b61009b6101e0565b005b3480156100a957600080fd5b506100fe600480360381019080803573ffffffffffffffffffffffffffffffffffffffff169060200190929190803573ffffffffffffffffffffffffffffffffffffffff169060200190929190505050610352565b005b34801561010c57600080fd5b506101156103d4565b604051808215151515815260200191505060405180910390f35b34801561013b57600080fd5b5061014461041e565b6040518082815260200191505060405180910390f35b34801561016657600080fd5b5061016f610428565b005b34801561017d57600080fd5b50610186610593565b005b34801561019457600080fd5b5061019d610721565b6040518082815260200191505060405180910390f35b3480156101bf57600080fd5b506101de6004803603810190808035906020019092919050505061072a565b005b600073ffffffffffffffffffffffffffffffffffffffff16600260003373ffffffffffffffffffffffffffffffffffffffff1673ffffffffffffffffffffffffffffffffffffffff16815260200190815260200160002060009054906101000a900473ffffffffffffffffffffffffffffffffffffffff1673ffffffffffffffffffffffffffffffffffffffff161415151561030a576040517f08c379a000000000000000000000000000000000000000000000000000000000815260040180806020018281038252602a8152602001807f4f6e6c7920706f6c69637920686f6c6465722063616e2063616c6c207468697381526020017f2066756e6374696f6e2e0000000000000000000000000000000000000000000081525060400191505060405180910390fd5b3460008082825401925050819055507fe34c389652410c46bb438dd3b75c4e2665251c032d7cf198239862e556751e6a346040518082815260200191505060405180910390a1565b81600260008373ffffffffffffffffffffffffffffffffffffffff1673ffffffffffffffffffffffffffffffffffffffff16815260200190815260200160002060006101000a81548173ffffffffffffffffffffffffffffffffffffffff021916908373ffffffffffffffffffffffffffffffffffffffff1602179055505050565b600080600360003373ffffffffffffffffffffffffffffffffffffffff1673ffffffffffffffffffffffffffffffffffffffff168152602001908152602001600020541415905090565b6000600154905090565b6000803373ffffffffffffffffffffffffffffffffffffffff16141515156104b8576040517f08c379a000000000000000000000000000000000000000000000000000000000815260040180806020018281038252600e8152602001807f57726f6e6720616464726573732e00000000000000000000000000000000000081525060200191505060405180910390fd5b600360003373ffffffffffffffffffffffffffffffffffffffff1673ffffffffffffffffffffffffffffffffffffffff1681526020019081526020016000205490506000811115610590576000600360003373ffffffffffffffffffffffffffffffffffffffff1673ffffffffffffffffffffffffffffffffffffffff168152602001908152602001600020819055503373ffffffffffffffffffffffffffffffffffffffff166108fc829081150290604051600060405180830381858888f1935050505015801561058e573d6000803e3d6000fd5b505b50565b600073ffffffffffffffffffffffffffffffffffffffff16600260003373ffffffffffffffffffffffffffffffffffffffff1673ffffffffffffffffffffffffffffffffffffffff16815260200190815260200160002060009054906101000a900473ffffffffffffffffffffffffffffffffffffffff1673ffffffffffffffffffffffffffffffffffffffff16141515156106bd576040517f08c379a000000000000000000000000000000000000000000000000000000000815260040180806020018281038252602a8152602001807f4f6e6c7920706f6c69637920686f6c6465722063616e2063616c6c207468697381526020017f2066756e6374696f6e2e0000000000000000000000000000000000000000000081525060400191505060405180910390fd5b600260003373ffffffffffffffffffffffffffffffffffffffff1673ffffffffffffffffffffffffffffffffffffffff16815260200190815260200160002060006101000a81549073ffffffffffffffffffffffffffffffffffffffff0219169055565b60008054905090565b60008073ffffffffffffffffffffffffffffffffffffffff16600260003373ffffffffffffffffffffffffffffffffffffffff1673ffffffffffffffffffffffffffffffffffffffff16815260200190815260200160002060009054906101000a900473ffffffffffffffffffffffffffffffffffffffff1673ffffffffffffffffffffffffffffffffffffffff1614151515610855576040517f08c379a000000000000000000000000000000000000000000000000000000000815260040180806020018281038252602a8152602001807f4f6e6c7920706f6c69637920686f6c6465722063616e2063616c6c207468697381526020017f2066756e6374696f6e2e0000000000000000000000000000000000000000000081525060400191505060405180910390fd5b600260003373ffffffffffffffffffffffffffffffffffffffff1673ffffffffffffffffffffffffffffffffffffffff16815260200190815260200160002060009054906101000a900473ffffffffffffffffffffffffffffffffffffffff1690508160008082825403925050819055508160016000828254019250508190555081600360008373ffffffffffffffffffffffffffffffffffffffff1673ffffffffffffffffffffffffffffffffffffffff168152602001908152602001600020600082825401925050819055507fa58f89b7070a03513695c04cd45d3507a7b98061c757923740a612f9243c3afd8183604051808373ffffffffffffffffffffffffffffffffffffffff1673ffffffffffffffffffffffffffffffffffffffff1681526020018281526020019250505060405180910390a150505600a165627a7a7230582074c91c145adf2067fb81f7aab6a829351cfd971699cf2eeef584a830cfd9e8da0029",
  "source": "pragma solidity ^0.4.23;\n\nimport \"./User.sol\";\n\ncontract InsuranceFund {\n  uint fund;\n  uint compensationsPaid;\n  \n  mapping(address => address) policyHolders;\n  mapping(address => uint) pendingReturns;\n\n  event CompensationPaid(address user, uint compensation);\n  event FundUpdated(uint value);\n\n  modifier onlyPolicyHolder () {\n    require(\n      policyHolders[msg.sender] != 0x0000000000000000000000000000000000000000,\n      \"Only policy holder can call this function.\"\n    );\n    _;\n  }\n\n  function getFund() public view returns(uint) {\n    return fund;\n  }\n\n  function registerPolicy(address policyHolder_, address policyContract_) public {\n    policyHolders[policyContract_] = policyHolder_;\n  }\n\n  function removePolicyHolder() public onlyPolicyHolder {\n    delete policyHolders[msg.sender];\n  }\n\n  function getCompensationsPaid() public view returns(uint) {\n    return compensationsPaid;\n  }\n\n  function checkCompensation() public view returns(bool) {\n    return pendingReturns[msg.sender] != 0;\n  }\n\n  function withdrawCompensation() public {\n    require(msg.sender != 0x0, \"Wrong address.\");\n\n    uint amount = pendingReturns[msg.sender];\n    if (amount > 0) {\n      pendingReturns[msg.sender] = 0;\n\n      msg.sender.transfer(amount);\n    }\n  }\n\n  function payCompensation(uint compensation) public onlyPolicyHolder {\n    address user = policyHolders[msg.sender];\n\n    fund -= compensation;\n    compensationsPaid += compensation;\n    pendingReturns[user] += compensation;\n\n    emit CompensationPaid(user, compensation);\n  }\n\n  function payPremium() public payable onlyPolicyHolder {\n    fund += msg.value;\n\n    emit FundUpdated(msg.value);\n  }\n}",
  "sourcePath": "/Users/yurakulynych/Documents/study/mutual-insurance/contracts/InsuranceFund.sol",
  "compiler": {
    "name": "solc",
    "version": "0.4.24+commit.e67f0147.Emscripten.clang"
  },
  "schemaVersion": "2.0.1",
  "updatedAt": "2018-11-05T06:54:50.354Z"
}