{
  "contractName": "InsuranceFund",
  "abi": [
    {
      "anonymous": false,
      "inputs": [
        {
          "indexed": false,
          "name": "user",
          "type": "address"
        },
        {
          "indexed": false,
          "name": "compensation",
          "type": "uint256"
        }
      ],
      "name": "CompensationPaid",
      "type": "event"
    },
    {
      "anonymous": false,
      "inputs": [
        {
          "indexed": false,
          "name": "value",
          "type": "uint256"
        }
      ],
      "name": "FundUpdated",
      "type": "event"
    },
    {
      "constant": true,
      "inputs": [],
      "name": "getFund",
      "outputs": [
        {
          "name": "",
          "type": "uint256"
        }
      ],
      "payable": false,
      "stateMutability": "view",
      "type": "function"
    },
    {
      "constant": true,
      "inputs": [],
      "name": "getCompensationsPaid",
      "outputs": [
        {
          "name": "",
          "type": "uint256"
        }
      ],
      "payable": false,
      "stateMutability": "view",
      "type": "function"
    },
    {
      "constant": true,
      "inputs": [],
      "name": "checkCompensation",
      "outputs": [
        {
          "name": "",
          "type": "bool"
        }
      ],
      "payable": false,
      "stateMutability": "view",
      "type": "function"
    },
    {
      "constant": false,
      "inputs": [],
      "name": "withdrawCompensation",
      "outputs": [],
      "payable": false,
      "stateMutability": "nonpayable",
      "type": "function"
    },
    {
      "constant": false,
      "inputs": [
        {
          "name": "user",
          "type": "address"
        },
        {
          "name": "compensation",
          "type": "uint256"
        }
      ],
      "name": "payCompensation",
      "outputs": [],
      "payable": false,
      "stateMutability": "nonpayable",
      "type": "function"
    },
    {
      "constant": false,
      "inputs": [],
      "name": "payPremium",
      "outputs": [],
      "payable": true,
      "stateMutability": "payable",
      "type": "function"
    }
  ],
  "bytecode": "0x608060405234801561001057600080fd5b506105a5806100206000396000f300608060405260043610610078576000357c0100000000000000000000000000000000000000000000000000000000900463ffffffff16806329c08ba21461007d5780634480d654146100875780634a1fbb81146100b6578063666c52d2146100e157806387a15dc91461012e5780638edd6eb614610145575b600080fd5b610085610170565b005b34801561009357600080fd5b5061009c610247565b604051808215151515815260200191505060405180910390f35b3480156100c257600080fd5b506100cb610291565b6040518082815260200191505060405180910390f35b3480156100ed57600080fd5b5061012c600480360381019080803573ffffffffffffffffffffffffffffffffffffffff1690602001909291908035906020019092919050505061029b565b005b34801561013a57600080fd5b50610143610405565b005b34801561015157600080fd5b5061015a610570565b6040518082815260200191505060405180910390f35b60003373ffffffffffffffffffffffffffffffffffffffff16141515156101ff576040517f08c379a000000000000000000000000000000000000000000000000000000000815260040180806020018281038252600e8152602001807f57726f6e6720616464726573732e00000000000000000000000000000000000081525060200191505060405180910390fd5b3460008082825401925050819055507fe34c389652410c46bb438dd3b75c4e2665251c032d7cf198239862e556751e6a346040518082815260200191505060405180910390a1565b600080600260003373ffffffffffffffffffffffffffffffffffffffff1673ffffffffffffffffffffffffffffffffffffffff168152602001908152602001600020541415905090565b6000600154905090565b60003373ffffffffffffffffffffffffffffffffffffffff161415151561032a576040517f08c379a000000000000000000000000000000000000000000000000000000000815260040180806020018281038252600e8152602001807f57726f6e6720616464726573732e00000000000000000000000000000000000081525060200191505060405180910390fd5b8060008082825403925050819055508060016000828254019250508190555080600260008473ffffffffffffffffffffffffffffffffffffffff1673ffffffffffffffffffffffffffffffffffffffff168152602001908152602001600020600082825401925050819055507fa58f89b7070a03513695c04cd45d3507a7b98061c757923740a612f9243c3afd8282604051808373ffffffffffffffffffffffffffffffffffffffff1673ffffffffffffffffffffffffffffffffffffffff1681526020018281526020019250505060405180910390a15050565b6000803373ffffffffffffffffffffffffffffffffffffffff1614151515610495576040517f08c379a000000000000000000000000000000000000000000000000000000000815260040180806020018281038252600e8152602001807f57726f6e6720616464726573732e00000000000000000000000000000000000081525060200191505060405180910390fd5b600260003373ffffffffffffffffffffffffffffffffffffffff1673ffffffffffffffffffffffffffffffffffffffff168152602001908152602001600020549050600081111561056d576000600260003373ffffffffffffffffffffffffffffffffffffffff1673ffffffffffffffffffffffffffffffffffffffff168152602001908152602001600020819055503373ffffffffffffffffffffffffffffffffffffffff166108fc829081150290604051600060405180830381858888f1935050505015801561056b573d6000803e3d6000fd5b505b50565b600080549050905600a165627a7a72305820694a9fbcac8b7a32929c26fb47cfdfc0fe0a15989ccbf42f70466ea65e8aa50f0029",
  "source": "pragma solidity ^0.4.23;\n\nimport \"./User.sol\";\n\ncontract InsuranceFund {\n  uint fund;\n  uint compensationsPaid;\n\n  mapping(address => uint) pendingReturns;\n\n  event CompensationPaid(address user, uint compensation);\n  event FundUpdated(uint value);\n\n  function getFund() public view returns(uint) {\n    return fund;\n  }\n\n  function getCompensationsPaid() public view returns(uint) {\n    return compensationsPaid;\n  }\n\n  function checkCompensation() public view returns(bool) {\n    return pendingReturns[msg.sender] != 0;\n  }\n\n  function withdrawCompensation() public {\n    require(msg.sender != 0x0, \"Wrong address.\");\n\n    uint amount = pendingReturns[msg.sender];\n    if (amount > 0) {\n      pendingReturns[msg.sender] = 0;\n\n      msg.sender.transfer(amount);\n    }\n  }\n\n  function payCompensation(address user, uint compensation) public {\n    require(msg.sender != 0x0, \"Wrong address.\");\n\n    fund -= compensation;\n    compensationsPaid += compensation;\n    pendingReturns[user] += compensation;\n\n    emit CompensationPaid(user, compensation);\n  }\n\n  function payPremium() public payable {\n    require(msg.sender != 0x0, \"Wrong address.\");\n\n    fund += msg.value;\n\n    emit FundUpdated(msg.value);\n  }\n}",
  "sourcePath": "/Users/yurakulynych/Documents/study/mutual-insurance/contracts/InsuranceFund.sol",
  "compiler": {
    "name": "solc",
    "version": "0.4.24+commit.e67f0147.Emscripten.clang"
  },
  "schemaVersion": "2.0.1",
  "updatedAt": "2018-11-04T09:41:10.538Z"
}