{
  "contractName": "Policy",
  "abi": [
    {
      "constant": true,
      "inputs": [],
      "name": "ownerContract",
      "outputs": [
        {
          "name": "",
          "type": "address"
        }
      ],
      "payable": false,
      "stateMutability": "view",
      "type": "function"
    },
    {
      "constant": true,
      "inputs": [],
      "name": "owner",
      "outputs": [
        {
          "name": "",
          "type": "address"
        }
      ],
      "payable": false,
      "stateMutability": "view",
      "type": "function"
    },
    {
      "inputs": [
        {
          "name": "owner_",
          "type": "address"
        },
        {
          "name": "ownerContract_",
          "type": "address"
        },
        {
          "name": "startTime_",
          "type": "uint256"
        },
        {
          "name": "endTime_",
          "type": "uint256"
        },
        {
          "name": "premium_",
          "type": "uint256"
        },
        {
          "name": "compensation_",
          "type": "uint256"
        },
        {
          "name": "fund_",
          "type": "address"
        }
      ],
      "payable": false,
      "stateMutability": "nonpayable",
      "type": "constructor"
    },
    {
      "anonymous": false,
      "inputs": [
        {
          "indexed": false,
          "name": "owner",
          "type": "address"
        },
        {
          "indexed": false,
          "name": "compensation",
          "type": "uint256"
        }
      ],
      "name": "InsuredEvent",
      "type": "event"
    },
    {
      "anonymous": false,
      "inputs": [
        {
          "indexed": false,
          "name": "owner",
          "type": "address"
        }
      ],
      "name": "PolicyCancelled",
      "type": "event"
    },
    {
      "anonymous": false,
      "inputs": [
        {
          "indexed": false,
          "name": "owner",
          "type": "address"
        }
      ],
      "name": "PolicyFinished",
      "type": "event"
    },
    {
      "anonymous": false,
      "inputs": [
        {
          "indexed": false,
          "name": "owner",
          "type": "address"
        },
        {
          "indexed": false,
          "name": "premium",
          "type": "uint256"
        },
        {
          "indexed": false,
          "name": "timeOfNextPayement",
          "type": "uint256"
        }
      ],
      "name": "PremiumPaid",
      "type": "event"
    },
    {
      "constant": true,
      "inputs": [],
      "name": "getPolicyInfo",
      "outputs": [
        {
          "name": "startTime",
          "type": "uint256"
        },
        {
          "name": "endTime",
          "type": "uint256"
        },
        {
          "name": "premium",
          "type": "uint256"
        },
        {
          "name": "compensation",
          "type": "uint256"
        },
        {
          "name": "timeOfNextPayement",
          "type": "uint256"
        }
      ],
      "payable": false,
      "stateMutability": "view",
      "type": "function"
    },
    {
      "constant": false,
      "inputs": [],
      "name": "cancel",
      "outputs": [],
      "payable": false,
      "stateMutability": "nonpayable",
      "type": "function"
    },
    {
      "constant": false,
      "inputs": [],
      "name": "payPremium",
      "outputs": [],
      "payable": true,
      "stateMutability": "payable",
      "type": "function"
    },
    {
      "constant": false,
      "inputs": [],
      "name": "reportInsuredEvent",
      "outputs": [],
      "payable": false,
      "stateMutability": "nonpayable",
      "type": "function"
    }
  ],
  "bytecode": "0x608060405234801561001057600080fd5b5060405160e080610e7583398101806040528101908080519060200190929190805190602001909291908051906020019092919080519060200190929190805190602001909291908051906020019092919080519060200190929190505050866000806101000a81548173ffffffffffffffffffffffffffffffffffffffff021916908373ffffffffffffffffffffffffffffffffffffffff16021790555085600160006101000a81548173ffffffffffffffffffffffffffffffffffffffff021916908373ffffffffffffffffffffffffffffffffffffffff16021790555060a06040519081016040528086815260200185815260200184815260200183815260200186815250600260008201518160000155602082015181600101556040820151816002015560608201518160030155608082015181600401559050506000600760006101000a81548160ff0219169083600381111561016e57fe5b021790555080600760016101000a81548173ffffffffffffffffffffffffffffffffffffffff021916908373ffffffffffffffffffffffffffffffffffffffff16021790555050505050505050610cab806101ca6000396000f300608060405260043610610078576000357c0100000000000000000000000000000000000000000000000000000000900463ffffffff16806329c08ba21461007d5780633fecfbf2146100875780637f74ac15146100ce5780638da5cb5b14610125578063b50461031461017c578063ea8a1af014610193575b600080fd5b6100856101aa565b005b34801561009357600080fd5b5061009c610500565b604051808681526020018581526020018481526020018381526020018281526020019550505050505060405180910390f35b3480156100da57600080fd5b506100e3610678565b604051808273ffffffffffffffffffffffffffffffffffffffff1673ffffffffffffffffffffffffffffffffffffffff16815260200191505060405180910390f35b34801561013157600080fd5b5061013a61069e565b604051808273ffffffffffffffffffffffffffffffffffffffff1673ffffffffffffffffffffffffffffffffffffffff16815260200191505060405180910390f35b34801561018857600080fd5b506101916106c3565b005b34801561019f57600080fd5b506101a86109f1565b005b6000809054906101000a900473ffffffffffffffffffffffffffffffffffffffff1673ffffffffffffffffffffffffffffffffffffffff163373ffffffffffffffffffffffffffffffffffffffff1614806102525750600160009054906101000a900473ffffffffffffffffffffffffffffffffffffffff1673ffffffffffffffffffffffffffffffffffffffff163373ffffffffffffffffffffffffffffffffffffffff16145b15156102ec576040517f08c379a00000000000000000000000000000000000000000000000000000000081526004018080602001828103825260298152602001807f4f6e6c7920706f6c696379206f776e65722063616e2063616c6c20746869732081526020017f66756e6374696f6e2e000000000000000000000000000000000000000000000081525060400191505060405180910390fd5b600060038111156102f957fe5b600760009054906101000a900460ff16600381111561031457fe5b1415156103af576040517f08c379a000000000000000000000000000000000000000000000000000000000815260040180806020018281038252602f8152602001807f546869732066756e6374696f6e2063616e2063616c6c206f6e6c7920666f722081526020017f6f6e676f696e6720706f6c6963792e000000000000000000000000000000000081525060400191505060405180910390fd5b639cbf9040600260040160008282540192505081905550600760019054906101000a900473ffffffffffffffffffffffffffffffffffffffff1673ffffffffffffffffffffffffffffffffffffffff166329c08ba2346040518263ffffffff167c01000000000000000000000000000000000000000000000000000000000281526004016000604051808303818588803b15801561044c57600080fd5b505af1158015610460573d6000803e3d6000fd5b50505050507f395bd21029ce552d1941c174d800a5599c4b1b28887cc9b9eea83c5409da93ef6000809054906101000a900473ffffffffffffffffffffffffffffffffffffffff1634600260040154604051808473ffffffffffffffffffffffffffffffffffffffff1673ffffffffffffffffffffffffffffffffffffffff168152602001838152602001828152602001935050505060405180910390a1565b60008060008060008060009054906101000a900473ffffffffffffffffffffffffffffffffffffffff1673ffffffffffffffffffffffffffffffffffffffff163373ffffffffffffffffffffffffffffffffffffffff1614806105b05750600160009054906101000a900473ffffffffffffffffffffffffffffffffffffffff1673ffffffffffffffffffffffffffffffffffffffff163373ffffffffffffffffffffffffffffffffffffffff16145b151561064a576040517f08c379a00000000000000000000000000000000000000000000000000000000081526004018080602001828103825260298152602001807f4f6e6c7920706f6c696379206f776e65722063616e2063616c6c20746869732081526020017f66756e6374696f6e2e000000000000000000000000000000000000000000000081525060400191505060405180910390fd5b6002600001546002600101546002800154600260030154600260040154945094509450945094509091929394565b600160009054906101000a900473ffffffffffffffffffffffffffffffffffffffff1681565b6000809054906101000a900473ffffffffffffffffffffffffffffffffffffffff1681565b6000809054906101000a900473ffffffffffffffffffffffffffffffffffffffff1673ffffffffffffffffffffffffffffffffffffffff163373ffffffffffffffffffffffffffffffffffffffff16148061076b5750600160009054906101000a900473ffffffffffffffffffffffffffffffffffffffff1673ffffffffffffffffffffffffffffffffffffffff163373ffffffffffffffffffffffffffffffffffffffff16145b1515610805576040517f08c379a00000000000000000000000000000000000000000000000000000000081526004018080602001828103825260298152602001807f4f6e6c7920706f6c696379206f776e65722063616e2063616c6c20746869732081526020017f66756e6374696f6e2e000000000000000000000000000000000000000000000081525060400191505060405180910390fd5b6000600381111561081257fe5b600760009054906101000a900460ff16600381111561082d57fe5b1415156108c8576040517f08c379a000000000000000000000000000000000000000000000000000000000815260040180806020018281038252602f8152602001807f546869732066756e6374696f6e2063616e2063616c6c206f6e6c7920666f722081526020017f6f6e676f696e6720706f6c6963792e000000000000000000000000000000000081525060400191505060405180910390fd5b6002600760006101000a81548160ff021916908360038111156108e757fe5b0217905550600760019054906101000a900473ffffffffffffffffffffffffffffffffffffffff1673ffffffffffffffffffffffffffffffffffffffff1663666c52d26000809054906101000a900473ffffffffffffffffffffffffffffffffffffffff166002600301546040518363ffffffff167c0100000000000000000000000000000000000000000000000000000000028152600401808373ffffffffffffffffffffffffffffffffffffffff1673ffffffffffffffffffffffffffffffffffffffff16815260200182815260200192505050600060405180830381600087803b1580156109d757600080fd5b505af11580156109eb573d6000803e3d6000fd5b50505050565b6000809054906101000a900473ffffffffffffffffffffffffffffffffffffffff1673ffffffffffffffffffffffffffffffffffffffff163373ffffffffffffffffffffffffffffffffffffffff161480610a995750600160009054906101000a900473ffffffffffffffffffffffffffffffffffffffff1673ffffffffffffffffffffffffffffffffffffffff163373ffffffffffffffffffffffffffffffffffffffff16145b1515610b33576040517f08c379a00000000000000000000000000000000000000000000000000000000081526004018080602001828103825260298152602001807f4f6e6c7920706f6c696379206f776e65722063616e2063616c6c20746869732081526020017f66756e6374696f6e2e000000000000000000000000000000000000000000000081525060400191505060405180910390fd5b60006003811115610b4057fe5b600760009054906101000a900460ff166003811115610b5b57fe5b141515610bf6576040517f08c379a000000000000000000000000000000000000000000000000000000000815260040180806020018281038252602f8152602001807f546869732066756e6374696f6e2063616e2063616c6c206f6e6c7920666f722081526020017f6f6e676f696e6720706f6c6963792e000000000000000000000000000000000081525060400191505060405180910390fd5b6001600760006101000a81548160ff02191690836003811115610c1557fe5b02179055507f885d66cbf95119e71ee4d46cb5794b6cae8beb42d312eebf331c1a26f50396cd33604051808273ffffffffffffffffffffffffffffffffffffffff1673ffffffffffffffffffffffffffffffffffffffff16815260200191505060405180910390a15600a165627a7a72305820cb3d790fc2539597822d7cf53a559da09134e2b9824b115c360880e00bfbc01f0029",
  "source": "pragma solidity ^0.4.23;\n\nimport \"./User.sol\";\nimport \"./InsuranceFund.sol\";\n\ncontract Policy {\n  enum Status {\n    Ongoing,\n    Cancelled,\n    InsuredEvent,\n    Finished\n  }\n\n  struct PolicyInfo {\n    uint startTime;\n    uint endTime;\n    uint premium;\n    uint compensation;\n    uint timeOfNextPayement;\n  }\n\n  address public owner;\n  address public ownerContract;\n  PolicyInfo private _policy;\n  Status private _status;\n  InsuranceFund private _fund;\n\n  event InsuredEvent(address owner, uint compensation);\n  event PolicyCancelled(address owner);\n  event PolicyFinished(address owner);\n  event PremiumPaid(address owner, uint premium, uint timeOfNextPayement);\n\n  modifier onlyOwner() {\n    require(msg.sender == owner || msg.sender == ownerContract, \"Only policy owner can call this function.\");\n    _;\n  }\n\n  modifier onlyOngoing {\n    require(_status == Status.Ongoing, \"This function can call only for ongoing policy.\");\n    _;\n  }\n\n  constructor(\n    address owner_,\n    address ownerContract_,\n    uint startTime_,\n    uint endTime_,\n    uint premium_,\n    uint compensation_,\n    InsuranceFund fund_\n  ) public {\n    owner = owner_;\n    ownerContract = ownerContract_;\n    _policy = PolicyInfo({\n      startTime: startTime_,\n      endTime: endTime_,\n      premium: premium_,\n      compensation: compensation_,\n      timeOfNextPayement: startTime_\n    });\n    _status = Status.Ongoing;\n    _fund = fund_;\n  }\n\n  function getPolicyInfo() public view onlyOwner returns(\n    uint startTime,\n    uint endTime,\n    uint premium,\n    uint compensation,\n    uint timeOfNextPayement\n  ) {\n    return(_policy.startTime, _policy.endTime, _policy.premium, _policy.compensation, _policy.timeOfNextPayement);\n  }\n\n  function cancel() public onlyOwner onlyOngoing {\n    // if (now > _policy.endTime) {\n    //   _status = Status.Finished;\n\n    //   emit PolicyFinished(msg.sender);\n    // } else {\n    // }\n    _status = Status.Cancelled;\n\n    emit PolicyCancelled(msg.sender);\n  }\n\n  function payPremium() external payable onlyOwner onlyOngoing {\n    _policy.timeOfNextPayement += 2629800000; // one month in ms\n\n    _fund.payPremium.value(msg.value)();\n\n    emit PremiumPaid(owner, msg.value, _policy.timeOfNextPayement);\n  }\n\n  function reportInsuredEvent() external onlyOwner onlyOngoing {\n    // if (now > _policy.endTime) {\n    //   _status = Status.Finished;\n    //   emit PolicyFinished(owner);\n    // } else {\n    // }\n    _status = Status.InsuredEvent;\n\n    _fund.payCompensation(owner, _policy.compensation);\n  }\n}",
  "sourcePath": "/Users/yurakulynych/Documents/study/mutual-insurance/contracts/Policy.sol",
  "compiler": {
    "name": "solc",
    "version": "0.4.24+commit.e67f0147.Emscripten.clang"
  },
  "schemaVersion": "2.0.1",
  "updatedAt": "2018-11-04T09:40:59.861Z"
}