{
  "contractName": "Policy",
  "abi": [
    {
      "constant": true,
      "inputs": [],
      "name": "ownerContract",
      "outputs": [
        {
          "name": "",
          "type": "address"
        }
      ],
      "payable": false,
      "stateMutability": "view",
      "type": "function"
    },
    {
      "constant": true,
      "inputs": [],
      "name": "owner",
      "outputs": [
        {
          "name": "",
          "type": "address"
        }
      ],
      "payable": false,
      "stateMutability": "view",
      "type": "function"
    },
    {
      "constant": true,
      "inputs": [],
      "name": "fund",
      "outputs": [
        {
          "name": "",
          "type": "address"
        }
      ],
      "payable": false,
      "stateMutability": "view",
      "type": "function"
    },
    {
      "inputs": [
        {
          "name": "owner_",
          "type": "address"
        },
        {
          "name": "ownerContract_",
          "type": "address"
        },
        {
          "name": "startTime_",
          "type": "uint256"
        },
        {
          "name": "endTime_",
          "type": "uint256"
        },
        {
          "name": "premium_",
          "type": "uint256"
        },
        {
          "name": "compensation_",
          "type": "uint256"
        },
        {
          "name": "fund_",
          "type": "address"
        }
      ],
      "payable": false,
      "stateMutability": "nonpayable",
      "type": "constructor"
    },
    {
      "anonymous": false,
      "inputs": [
        {
          "indexed": false,
          "name": "owner",
          "type": "address"
        },
        {
          "indexed": false,
          "name": "compensation",
          "type": "uint256"
        }
      ],
      "name": "InsuredEvent",
      "type": "event"
    },
    {
      "anonymous": false,
      "inputs": [
        {
          "indexed": false,
          "name": "owner",
          "type": "address"
        }
      ],
      "name": "PolicyCancelled",
      "type": "event"
    },
    {
      "anonymous": false,
      "inputs": [
        {
          "indexed": false,
          "name": "owner",
          "type": "address"
        }
      ],
      "name": "PolicyFinished",
      "type": "event"
    },
    {
      "anonymous": false,
      "inputs": [
        {
          "indexed": false,
          "name": "owner",
          "type": "address"
        },
        {
          "indexed": false,
          "name": "premium",
          "type": "uint256"
        },
        {
          "indexed": false,
          "name": "timeOfNextPayement",
          "type": "uint256"
        }
      ],
      "name": "PremiumPaid",
      "type": "event"
    },
    {
      "constant": true,
      "inputs": [],
      "name": "getPolicyInfo",
      "outputs": [
        {
          "name": "startTime",
          "type": "uint256"
        },
        {
          "name": "endTime",
          "type": "uint256"
        },
        {
          "name": "premium",
          "type": "uint256"
        },
        {
          "name": "compensation",
          "type": "uint256"
        },
        {
          "name": "timeOfNextPayement",
          "type": "uint256"
        }
      ],
      "payable": false,
      "stateMutability": "view",
      "type": "function"
    },
    {
      "constant": false,
      "inputs": [],
      "name": "cancel",
      "outputs": [],
      "payable": false,
      "stateMutability": "nonpayable",
      "type": "function"
    },
    {
      "constant": false,
      "inputs": [],
      "name": "payPremium",
      "outputs": [],
      "payable": true,
      "stateMutability": "payable",
      "type": "function"
    },
    {
      "constant": false,
      "inputs": [],
      "name": "reportInsuredEvent",
      "outputs": [],
      "payable": false,
      "stateMutability": "nonpayable",
      "type": "function"
    }
  ],
  "bytecode": "0x608060405234801561001057600080fd5b5060405160e08061112a833981018060405281019080805190602001909291908051906020019092919080519060200190929190805190602001909291908051906020019092919080519060200190929190805190602001909291905050506492f3973c008585031015156100ed576040517f08c379a000000000000000000000000000000000000000000000000000000000815260040180806020018281038252600f8152602001807f546f6f206c6f6e6720706f6c696379000000000000000000000000000000000081525060200191505060405180910390fd5b68056bc75e2d631000008210151561016d576040517f08c379a00000000000000000000000000000000000000000000000000000000081526004018080602001828103825260148152602001807f546f6f2062696720636f6d70656e736174696f6e00000000000000000000000081525060200191505060405180910390fd5b866000806101000a81548173ffffffffffffffffffffffffffffffffffffffff021916908373ffffffffffffffffffffffffffffffffffffffff16021790555085600160006101000a81548173ffffffffffffffffffffffffffffffffffffffff021916908373ffffffffffffffffffffffffffffffffffffffff1602179055506000600860006101000a81548160ff0219169083600381111561020d57fe5b021790555080600260006101000a81548173ffffffffffffffffffffffffffffffffffffffff021916908373ffffffffffffffffffffffffffffffffffffffff16021790555060a06040519081016040528086815260200185815260200184815260200183815260200186815250600360008201518160000155602082015181600101556040820151816002015560608201518160030155608082015181600401559050508073ffffffffffffffffffffffffffffffffffffffff1663319a50d488306040518363ffffffff167c0100000000000000000000000000000000000000000000000000000000028152600401808373ffffffffffffffffffffffffffffffffffffffff1673ffffffffffffffffffffffffffffffffffffffff1681526020018273ffffffffffffffffffffffffffffffffffffffff1673ffffffffffffffffffffffffffffffffffffffff16815260200192505050600060405180830381600087803b15801561038157600080fd5b505af1158015610395573d6000803e3d6000fd5b5050505050505050505050610d7b806103af6000396000f300608060405260043610610083576000357c0100000000000000000000000000000000000000000000000000000000900463ffffffff16806329c08ba2146100885780633fecfbf2146100925780637f74ac15146100d95780638da5cb5b14610130578063b504610314610187578063b60d42881461019e578063ea8a1af0146101f5575b600080fd5b61009061020c565b005b34801561009e57600080fd5b506100a7610562565b604051808681526020018581526020018481526020018381526020018281526020019550505050505060405180910390f35b3480156100e557600080fd5b506100ee6106da565b604051808273ffffffffffffffffffffffffffffffffffffffff1673ffffffffffffffffffffffffffffffffffffffff16815260200191505060405180910390f35b34801561013c57600080fd5b50610145610700565b604051808273ffffffffffffffffffffffffffffffffffffffff1673ffffffffffffffffffffffffffffffffffffffff16815260200191505060405180910390f35b34801561019357600080fd5b5061019c610725565b005b3480156101aa57600080fd5b506101b36109fd565b604051808273ffffffffffffffffffffffffffffffffffffffff1673ffffffffffffffffffffffffffffffffffffffff16815260200191505060405180910390f35b34801561020157600080fd5b5061020a610a23565b005b6000809054906101000a900473ffffffffffffffffffffffffffffffffffffffff1673ffffffffffffffffffffffffffffffffffffffff163373ffffffffffffffffffffffffffffffffffffffff1614806102b45750600160009054906101000a900473ffffffffffffffffffffffffffffffffffffffff1673ffffffffffffffffffffffffffffffffffffffff163373ffffffffffffffffffffffffffffffffffffffff16145b151561034e576040517f08c379a00000000000000000000000000000000000000000000000000000000081526004018080602001828103825260298152602001807f4f6e6c7920706f6c696379206f776e65722063616e2063616c6c20746869732081526020017f66756e6374696f6e2e000000000000000000000000000000000000000000000081525060400191505060405180910390fd5b6000600381111561035b57fe5b600860009054906101000a900460ff16600381111561037657fe5b141515610411576040517f08c379a000000000000000000000000000000000000000000000000000000000815260040180806020018281038252602f8152602001807f546869732066756e6374696f6e2063616e2063616c6c206f6e6c7920666f722081526020017f6f6e676f696e6720706f6c6963792e000000000000000000000000000000000081525060400191505060405180910390fd5b639cbf9040600360040160008282540192505081905550600260009054906101000a900473ffffffffffffffffffffffffffffffffffffffff1673ffffffffffffffffffffffffffffffffffffffff166329c08ba2346040518263ffffffff167c01000000000000000000000000000000000000000000000000000000000281526004016000604051808303818588803b1580156104ae57600080fd5b505af11580156104c2573d6000803e3d6000fd5b50505050507f395bd21029ce552d1941c174d800a5599c4b1b28887cc9b9eea83c5409da93ef6000809054906101000a900473ffffffffffffffffffffffffffffffffffffffff1634600360040154604051808473ffffffffffffffffffffffffffffffffffffffff1673ffffffffffffffffffffffffffffffffffffffff168152602001838152602001828152602001935050505060405180910390a1565b60008060008060008060009054906101000a900473ffffffffffffffffffffffffffffffffffffffff1673ffffffffffffffffffffffffffffffffffffffff163373ffffffffffffffffffffffffffffffffffffffff1614806106125750600160009054906101000a900473ffffffffffffffffffffffffffffffffffffffff1673ffffffffffffffffffffffffffffffffffffffff163373ffffffffffffffffffffffffffffffffffffffff16145b15156106ac576040517f08c379a00000000000000000000000000000000000000000000000000000000081526004018080602001828103825260298152602001807f4f6e6c7920706f6c696379206f776e65722063616e2063616c6c20746869732081526020017f66756e6374696f6e2e000000000000000000000000000000000000000000000081525060400191505060405180910390fd5b6003600001546003600101546003600201546003800154600360040154945094509450945094509091929394565b600160009054906101000a900473ffffffffffffffffffffffffffffffffffffffff1681565b6000809054906101000a900473ffffffffffffffffffffffffffffffffffffffff1681565b6000809054906101000a900473ffffffffffffffffffffffffffffffffffffffff1673ffffffffffffffffffffffffffffffffffffffff163373ffffffffffffffffffffffffffffffffffffffff1614806107cd5750600160009054906101000a900473ffffffffffffffffffffffffffffffffffffffff1673ffffffffffffffffffffffffffffffffffffffff163373ffffffffffffffffffffffffffffffffffffffff16145b1515610867576040517f08c379a00000000000000000000000000000000000000000000000000000000081526004018080602001828103825260298152602001807f4f6e6c7920706f6c696379206f776e65722063616e2063616c6c20746869732081526020017f66756e6374696f6e2e000000000000000000000000000000000000000000000081525060400191505060405180910390fd5b6000600381111561087457fe5b600860009054906101000a900460ff16600381111561088f57fe5b14151561092a576040517f08c379a000000000000000000000000000000000000000000000000000000000815260040180806020018281038252602f8152602001807f546869732066756e6374696f6e2063616e2063616c6c206f6e6c7920666f722081526020017f6f6e676f696e6720706f6c6963792e000000000000000000000000000000000081525060400191505060405180910390fd5b6002600860006101000a81548160ff0219169083600381111561094957fe5b0217905550600260009054906101000a900473ffffffffffffffffffffffffffffffffffffffff1673ffffffffffffffffffffffffffffffffffffffff1663deddaae660038001546040518263ffffffff167c010000000000000000000000000000000000000000000000000000000002815260040180828152602001915050600060405180830381600087803b1580156109e357600080fd5b505af11580156109f7573d6000803e3d6000fd5b50505050565b600260009054906101000a900473ffffffffffffffffffffffffffffffffffffffff1681565b6000809054906101000a900473ffffffffffffffffffffffffffffffffffffffff1673ffffffffffffffffffffffffffffffffffffffff163373ffffffffffffffffffffffffffffffffffffffff161480610acb5750600160009054906101000a900473ffffffffffffffffffffffffffffffffffffffff1673ffffffffffffffffffffffffffffffffffffffff163373ffffffffffffffffffffffffffffffffffffffff16145b1515610b65576040517f08c379a00000000000000000000000000000000000000000000000000000000081526004018080602001828103825260298152602001807f4f6e6c7920706f6c696379206f776e65722063616e2063616c6c20746869732081526020017f66756e6374696f6e2e000000000000000000000000000000000000000000000081525060400191505060405180910390fd5b60006003811115610b7257fe5b600860009054906101000a900460ff166003811115610b8d57fe5b141515610c28576040517f08c379a000000000000000000000000000000000000000000000000000000000815260040180806020018281038252602f8152602001807f546869732066756e6374696f6e2063616e2063616c6c206f6e6c7920666f722081526020017f6f6e676f696e6720706f6c6963792e000000000000000000000000000000000081525060400191505060405180910390fd5b6001600860006101000a81548160ff02191690836003811115610c4757fe5b0217905550600260009054906101000a900473ffffffffffffffffffffffffffffffffffffffff1673ffffffffffffffffffffffffffffffffffffffff16638b1753b76040518163ffffffff167c0100000000000000000000000000000000000000000000000000000000028152600401600060405180830381600087803b158015610cd257600080fd5b505af1158015610ce6573d6000803e3d6000fd5b505050507f885d66cbf95119e71ee4d46cb5794b6cae8beb42d312eebf331c1a26f50396cd33604051808273ffffffffffffffffffffffffffffffffffffffff1673ffffffffffffffffffffffffffffffffffffffff16815260200191505060405180910390a15600a165627a7a72305820d487380f480dd07251ff375388bc5c7c184efb754e42d1363877f6a7c30feff50029",
  "source": "pragma solidity ^0.4.23;\n\nimport \"./User.sol\";\nimport \"./InsuranceFund.sol\";\n\ncontract Policy {\n  enum Status {\n    Ongoing,\n    Cancelled,\n    InsuredEvent,\n    Finished\n  }\n\n  struct PolicyInfo {\n    uint startTime;\n    uint endTime;\n    uint premium;\n    uint compensation;\n    uint timeOfNextPayement;\n  }\n\n  address public owner;\n  address public ownerContract;\n  InsuranceFund public fund;\n\n  PolicyInfo private _policy;\n  Status private _status;\n\n  event InsuredEvent(address owner, uint compensation);\n  event PolicyCancelled(address owner);\n  event PolicyFinished(address owner);\n  event PremiumPaid(address owner, uint premium, uint timeOfNextPayement);\n\n  modifier onlyOwner() {\n    require(msg.sender == owner || msg.sender == ownerContract, \"Only policy owner can call this function.\");\n    _;\n  }\n\n  modifier onlyOngoing {\n    require(_status == Status.Ongoing, \"This function can call only for ongoing policy.\");\n    _;\n  }\n\n  constructor(\n    address owner_,\n    address ownerContract_,\n    uint startTime_,\n    uint endTime_,\n    uint premium_,\n    uint compensation_,\n    InsuranceFund fund_\n  ) public {\n    require(endTime_ - startTime_ < 631152000000, \"Too long policy\"); // Should be less than 20 years\n    require(compensation_ < 100 ether, \"Too big compensation\");\n\n    owner = owner_;\n    ownerContract = ownerContract_;\n    _status = Status.Ongoing;\n    fund = fund_;\n\n    _policy = PolicyInfo({\n      startTime: startTime_,\n      endTime: endTime_,\n      premium: premium_,\n      compensation: compensation_,\n      timeOfNextPayement: startTime_\n    });\n\n    fund_.registerPolicy(owner_, address(this));\n  }\n\n  function getPolicyInfo() public view onlyOwner returns(\n    uint startTime,\n    uint endTime,\n    uint premium,\n    uint compensation,\n    uint timeOfNextPayement\n  ) {\n    return(_policy.startTime, _policy.endTime, _policy.premium, _policy.compensation, _policy.timeOfNextPayement);\n  }\n\n  function cancel() public onlyOwner onlyOngoing {\n    _status = Status.Cancelled;\n\n    fund.removePolicyHolder();\n\n    emit PolicyCancelled(msg.sender);\n  }\n\n  function payPremium() external payable onlyOwner onlyOngoing {\n    _policy.timeOfNextPayement += 2629800000; // one month in ms\n\n    fund.payPremium.value(msg.value)();\n\n    emit PremiumPaid(owner, msg.value, _policy.timeOfNextPayement);\n  }\n\n  function reportInsuredEvent() external onlyOwner onlyOngoing {\n    _status = Status.InsuredEvent;\n\n    fund.payCompensation(_policy.compensation);\n  }\n}",
  "sourcePath": "/Users/yurakulynych/Documents/study/mutual-insurance/contracts/Policy.sol",
  "compiler": {
    "name": "solc",
    "version": "0.4.24+commit.e67f0147.Emscripten.clang"
  },
  "schemaVersion": "2.0.1",
  "updatedAt": "2018-11-05T06:54:22.687Z"
}