{
  "contractName": "User",
  "abi": [
    {
      "constant": true,
      "inputs": [],
      "name": "registry",
      "outputs": [
        {
          "name": "",
          "type": "address"
        }
      ],
      "payable": false,
      "stateMutability": "view",
      "type": "function"
    },
    {
      "constant": true,
      "inputs": [],
      "name": "owner",
      "outputs": [
        {
          "name": "",
          "type": "address"
        }
      ],
      "payable": false,
      "stateMutability": "view",
      "type": "function"
    },
    {
      "inputs": [
        {
          "name": "owner_",
          "type": "address"
        },
        {
          "name": "fund_",
          "type": "address"
        }
      ],
      "payable": false,
      "stateMutability": "nonpayable",
      "type": "constructor"
    },
    {
      "anonymous": false,
      "inputs": [
        {
          "indexed": false,
          "name": "name",
          "type": "string"
        },
        {
          "indexed": false,
          "name": "birthDate",
          "type": "uint256"
        },
        {
          "indexed": false,
          "name": "city",
          "type": "string"
        },
        {
          "indexed": false,
          "name": "gender",
          "type": "string"
        }
      ],
      "name": "UserProfileUpdated",
      "type": "event"
    },
    {
      "anonymous": false,
      "inputs": [
        {
          "indexed": false,
          "name": "policy",
          "type": "address"
        }
      ],
      "name": "PolicyCreated",
      "type": "event"
    },
    {
      "constant": true,
      "inputs": [],
      "name": "getProfileInfo",
      "outputs": [
        {
          "name": "name",
          "type": "string"
        },
        {
          "name": "birthDate",
          "type": "uint256"
        },
        {
          "name": "city",
          "type": "string"
        },
        {
          "name": "gender",
          "type": "string"
        }
      ],
      "payable": false,
      "stateMutability": "view",
      "type": "function"
    },
    {
      "constant": false,
      "inputs": [
        {
          "name": "name",
          "type": "string"
        },
        {
          "name": "birthDate",
          "type": "uint256"
        },
        {
          "name": "city",
          "type": "string"
        },
        {
          "name": "gender",
          "type": "string"
        }
      ],
      "name": "setProfileInfo",
      "outputs": [],
      "payable": false,
      "stateMutability": "nonpayable",
      "type": "function"
    },
    {
      "constant": false,
      "inputs": [
        {
          "name": "compensation",
          "type": "uint256"
        },
        {
          "name": "duration",
          "type": "uint256"
        },
        {
          "name": "premium",
          "type": "uint256"
        }
      ],
      "name": "createPolicy",
      "outputs": [],
      "payable": false,
      "stateMutability": "nonpayable",
      "type": "function"
    },
    {
      "constant": true,
      "inputs": [],
      "name": "getPolicy",
      "outputs": [
        {
          "name": "",
          "type": "address"
        }
      ],
      "payable": false,
      "stateMutability": "view",
      "type": "function"
    },
    {
      "constant": false,
      "inputs": [],
      "name": "cancelPolicy",
      "outputs": [],
      "payable": false,
      "stateMutability": "nonpayable",
      "type": "function"
    },
    {
      "constant": false,
      "inputs": [],
      "name": "payPremium",
      "outputs": [],
      "payable": true,
      "stateMutability": "payable",
      "type": "function"
    },
    {
      "constant": false,
      "inputs": [],
      "name": "reportInsuredEvent",
      "outputs": [],
      "payable": false,
      "stateMutability": "nonpayable",
      "type": "function"
    }
  ],
  "bytecode": "0x608060405234801561001057600080fd5b506040516040806127bc833981018060405281019080805190602001909291908051906020019092919050505060008273ffffffffffffffffffffffffffffffffffffffff16141515156100cc576040517f08c379a000000000000000000000000000000000000000000000000000000000815260040180806020018281038252600d8152602001807f57726f6e6720616464726573730000000000000000000000000000000000000081525060200191505060405180910390fd5b60003373ffffffffffffffffffffffffffffffffffffffff161415151561015b576040517f08c379a000000000000000000000000000000000000000000000000000000000815260040180806020018281038252600e8152602001807f57726f6e6720616464726573732e00000000000000000000000000000000000081525060200191505060405180910390fd5b816000806101000a81548173ffffffffffffffffffffffffffffffffffffffff021916908373ffffffffffffffffffffffffffffffffffffffff16021790555080600760006101000a81548173ffffffffffffffffffffffffffffffffffffffff021916908373ffffffffffffffffffffffffffffffffffffffff16021790555033600160006101000a81548173ffffffffffffffffffffffffffffffffffffffff021916908373ffffffffffffffffffffffffffffffffffffffff160217905550505061258e8061022e6000396000f300608060405260043610610099576000357c0100000000000000000000000000000000000000000000000000000000900463ffffffff16806329c08ba21461009e5780633bafe313146100a85780634ef2cc00146102175780637b1039991461022e5780638da5cb5b146102855780639863a52d146102dc578063b5046103146103db578063ce1e4626146103f2578063d0ab9a8914610449575b600080fd5b6100a661048a565b005b3480156100b457600080fd5b506100bd6106dc565b60405180806020018581526020018060200180602001848103845288818151815260200191508051906020019080838360005b8381101561010b5780820151818401526020810190506100f0565b50505050905090810190601f1680156101385780820380516001836020036101000a031916815260200191505b50848103835286818151815260200191508051906020019080838360005b83811015610171578082015181840152602081019050610156565b50505050905090810190601f16801561019e5780820380516001836020036101000a031916815260200191505b50848103825285818151815260200191508051906020019080838360005b838110156101d75780820151818401526020810190506101bc565b50505050905090810190601f1680156102045780820380516001836020036101000a031916815260200191505b5097505050505050505060405180910390f35b34801561022357600080fd5b5061022c6109c3565b005b34801561023a57600080fd5b50610243610c3f565b604051808273ffffffffffffffffffffffffffffffffffffffff1673ffffffffffffffffffffffffffffffffffffffff16815260200191505060405180910390f35b34801561029157600080fd5b5061029a610c65565b604051808273ffffffffffffffffffffffffffffffffffffffff1673ffffffffffffffffffffffffffffffffffffffff16815260200191505060405180910390f35b3480156102e857600080fd5b506103d9600480360381019080803590602001908201803590602001908080601f016020809104026020016040519081016040528093929190818152602001838380828437820191505050505050919291929080359060200190929190803590602001908201803590602001908080601f0160208091040260200160405190810160405280939291908181526020018383808284378201915050505050509192919290803590602001908201803590602001908080601f0160208091040260200160405190810160405280939291908181526020018383808284378201915050505050509192919290505050610c8a565b005b3480156103e757600080fd5b506103f0610f4f565b005b3480156103fe57600080fd5b506104076111cb565b604051808273ffffffffffffffffffffffffffffffffffffffff1673ffffffffffffffffffffffffffffffffffffffff16815260200191505060405180910390f35b34801561045557600080fd5b506104886004803603810190808035906020019092919080359060200190929190803590602001909291905050506113a6565b005b6000809054906101000a900473ffffffffffffffffffffffffffffffffffffffff1673ffffffffffffffffffffffffffffffffffffffff163373ffffffffffffffffffffffffffffffffffffffff16141515610574576040517f08c379a00000000000000000000000000000000000000000000000000000000081526004018080602001828103825260228152602001807f4f6e6c79206f776e65722063616e2063616c6c20746869732066756e6374696f81526020017f6e2e00000000000000000000000000000000000000000000000000000000000081525060400191505060405180910390fd5b600073ffffffffffffffffffffffffffffffffffffffff16600660009054906101000a900473ffffffffffffffffffffffffffffffffffffffff1673ffffffffffffffffffffffffffffffffffffffff161415151561063b576040517f08c379a00000000000000000000000000000000000000000000000000000000081526004018080602001828103825260158152602001807f596f7520646f6e2774206861766520706f6c696379000000000000000000000081525060200191505060405180910390fd5b600660009054906101000a900473ffffffffffffffffffffffffffffffffffffffff1673ffffffffffffffffffffffffffffffffffffffff166329c08ba2346040518263ffffffff167c01000000000000000000000000000000000000000000000000000000000281526004016000604051808303818588803b1580156106c157600080fd5b505af11580156106d5573d6000803e3d6000fd5b5050505050565b606060006060806000809054906101000a900473ffffffffffffffffffffffffffffffffffffffff1673ffffffffffffffffffffffffffffffffffffffff163373ffffffffffffffffffffffffffffffffffffffff161415156107cd576040517f08c379a00000000000000000000000000000000000000000000000000000000081526004018080602001828103825260228152602001807f4f6e6c79206f776e65722063616e2063616c6c20746869732066756e6374696f81526020017f6e2e00000000000000000000000000000000000000000000000000000000000081525060400191505060405180910390fd5b6002600001600260010154600280016002600301838054600181600116156101000203166002900480601f0160208091040260200160405190810160405280929190818152602001828054600181600116156101000203166002900480156108765780601f1061084b57610100808354040283529160200191610876565b820191906000526020600020905b81548152906001019060200180831161085957829003601f168201915b50505050509350818054600181600116156101000203166002900480601f0160208091040260200160405190810160405280929190818152602001828054600181600116156101000203166002900480156109125780601f106108e757610100808354040283529160200191610912565b820191906000526020600020905b8154815290600101906020018083116108f557829003601f168201915b50505050509150808054600181600116156101000203166002900480601f0160208091040260200160405190810160405280929190818152602001828054600181600116156101000203166002900480156109ae5780601f10610983576101008083540402835291602001916109ae565b820191906000526020600020905b81548152906001019060200180831161099157829003601f168201915b50505050509050935093509350935090919293565b60008060009054906101000a900473ffffffffffffffffffffffffffffffffffffffff1673ffffffffffffffffffffffffffffffffffffffff163373ffffffffffffffffffffffffffffffffffffffff16141515610aaf576040517f08c379a00000000000000000000000000000000000000000000000000000000081526004018080602001828103825260228152602001807f4f6e6c79206f776e65722063616e2063616c6c20746869732066756e6374696f81526020017f6e2e00000000000000000000000000000000000000000000000000000000000081525060400191505060405180910390fd5b600073ffffffffffffffffffffffffffffffffffffffff16600660009054906101000a900473ffffffffffffffffffffffffffffffffffffffff1673ffffffffffffffffffffffffffffffffffffffff1614151515610b76576040517f08c379a00000000000000000000000000000000000000000000000000000000081526004018080602001828103825260158152602001807f596f7520646f6e2774206861766520706f6c696379000000000000000000000081525060200191505060405180910390fd5b600660009054906101000a900473ffffffffffffffffffffffffffffffffffffffff169050600660006101000a81549073ffffffffffffffffffffffffffffffffffffffff02191690558073ffffffffffffffffffffffffffffffffffffffff1663ea8a1af06040518163ffffffff167c0100000000000000000000000000000000000000000000000000000000028152600401600060405180830381600087803b158015610c2457600080fd5b505af1158015610c38573d6000803e3d6000fd5b5050505050565b600160009054906101000a900473ffffffffffffffffffffffffffffffffffffffff1681565b6000809054906101000a900473ffffffffffffffffffffffffffffffffffffffff1681565b6000809054906101000a900473ffffffffffffffffffffffffffffffffffffffff1673ffffffffffffffffffffffffffffffffffffffff163373ffffffffffffffffffffffffffffffffffffffff16141515610d74576040517f08c379a00000000000000000000000000000000000000000000000000000000081526004018080602001828103825260228152602001807f4f6e6c79206f776e65722063616e2063616c6c20746869732066756e6374696f81526020017f6e2e00000000000000000000000000000000000000000000000000000000000081525060400191505060405180910390fd5b8360026000019080519060200190610d8d929190611646565b508260026001018190555081600280019080519060200190610db0929190611646565b508060026003019080519060200190610dca929190611646565b507fa7cf751f37fb3824be1816417bc3afc81a9953509cbc4cf18576166a7c0c263a8484848460405180806020018581526020018060200180602001848103845288818151815260200191508051906020019080838360005b83811015610e3e578082015181840152602081019050610e23565b50505050905090810190601f168015610e6b5780820380516001836020036101000a031916815260200191505b50848103835286818151815260200191508051906020019080838360005b83811015610ea4578082015181840152602081019050610e89565b50505050905090810190601f168015610ed15780820380516001836020036101000a031916815260200191505b50848103825285818151815260200191508051906020019080838360005b83811015610f0a578082015181840152602081019050610eef565b50505050905090810190601f168015610f375780820380516001836020036101000a031916815260200191505b5097505050505050505060405180910390a150505050565b60008060009054906101000a900473ffffffffffffffffffffffffffffffffffffffff1673ffffffffffffffffffffffffffffffffffffffff163373ffffffffffffffffffffffffffffffffffffffff1614151561103b576040517f08c379a00000000000000000000000000000000000000000000000000000000081526004018080602001828103825260228152602001807f4f6e6c79206f776e65722063616e2063616c6c20746869732066756e6374696f81526020017f6e2e00000000000000000000000000000000000000000000000000000000000081525060400191505060405180910390fd5b600073ffffffffffffffffffffffffffffffffffffffff16600660009054906101000a900473ffffffffffffffffffffffffffffffffffffffff1673ffffffffffffffffffffffffffffffffffffffff1614151515611102576040517f08c379a00000000000000000000000000000000000000000000000000000000081526004018080602001828103825260158152602001807f596f7520646f6e2774206861766520706f6c696379000000000000000000000081525060200191505060405180910390fd5b600660009054906101000a900473ffffffffffffffffffffffffffffffffffffffff169050600660006101000a81549073ffffffffffffffffffffffffffffffffffffffff02191690558073ffffffffffffffffffffffffffffffffffffffff1663b50461036040518163ffffffff167c0100000000000000000000000000000000000000000000000000000000028152600401600060405180830381600087803b1580156111b057600080fd5b505af11580156111c4573d6000803e3d6000fd5b5050505050565b60008060009054906101000a900473ffffffffffffffffffffffffffffffffffffffff1673ffffffffffffffffffffffffffffffffffffffff163373ffffffffffffffffffffffffffffffffffffffff161415156112b7576040517f08c379a00000000000000000000000000000000000000000000000000000000081526004018080602001828103825260228152602001807f4f6e6c79206f776e65722063616e2063616c6c20746869732066756e6374696f81526020017f6e2e00000000000000000000000000000000000000000000000000000000000081525060400191505060405180910390fd5b600073ffffffffffffffffffffffffffffffffffffffff16600660009054906101000a900473ffffffffffffffffffffffffffffffffffffffff1673ffffffffffffffffffffffffffffffffffffffff161415151561137e576040517f08c379a00000000000000000000000000000000000000000000000000000000081526004018080602001828103825260158152602001807f596f7520646f6e2774206861766520706f6c696379000000000000000000000081525060200191505060405180910390fd5b600660009054906101000a900473ffffffffffffffffffffffffffffffffffffffff16905090565b60008060009054906101000a900473ffffffffffffffffffffffffffffffffffffffff1673ffffffffffffffffffffffffffffffffffffffff163373ffffffffffffffffffffffffffffffffffffffff16141515611492576040517f08c379a00000000000000000000000000000000000000000000000000000000081526004018080602001828103825260228152602001807f4f6e6c79206f776e65722063616e2063616c6c20746869732066756e6374696f81526020017f6e2e00000000000000000000000000000000000000000000000000000000000081525060400191505060405180910390fd5b3330428542018588600760009054906101000a900473ffffffffffffffffffffffffffffffffffffffff166114c56116c6565b808873ffffffffffffffffffffffffffffffffffffffff1673ffffffffffffffffffffffffffffffffffffffff1681526020018773ffffffffffffffffffffffffffffffffffffffff1673ffffffffffffffffffffffffffffffffffffffff1681526020018681526020018581526020018481526020018381526020018273ffffffffffffffffffffffffffffffffffffffff1673ffffffffffffffffffffffffffffffffffffffff168152602001975050505050505050604051809103906000f080158015611599573d6000803e3d6000fd5b50905080600660006101000a81548173ffffffffffffffffffffffffffffffffffffffff021916908373ffffffffffffffffffffffffffffffffffffffff1602179055507f2f111d8a56aa0ad671b0442ae028827407496656571a697781157db90a03ae1481604051808273ffffffffffffffffffffffffffffffffffffffff1673ffffffffffffffffffffffffffffffffffffffff16815260200191505060405180910390a150505050565b828054600181600116156101000203166002900490600052602060002090601f016020900481019282601f1061168757805160ff19168380011785556116b5565b828001600101855582156116b5579182015b828111156116b4578251825591602001919060010190611699565b5b5090506116c291906116d6565b5090565b604051610e67806116fc83390190565b6116f891905b808211156116f45760008160009055506001016116dc565b5090565b905600608060405234801561001057600080fd5b5060405160e080610e6783398101806040528101908080519060200190929190805190602001909291908051906020019092919080519060200190929190805190602001909291908051906020019092919080519060200190929190505050866000806101000a81548173ffffffffffffffffffffffffffffffffffffffff021916908373ffffffffffffffffffffffffffffffffffffffff16021790555085600160006101000a81548173ffffffffffffffffffffffffffffffffffffffff021916908373ffffffffffffffffffffffffffffffffffffffff16021790555060a06040519081016040528086815260200185815260200184815260200183815260200186815250600260008201518160000155602082015181600101556040820151816002015560608201518160030155608082015181600401559050506000600760006101000a81548160ff0219169083600381111561016e57fe5b021790555080600760016101000a81548173ffffffffffffffffffffffffffffffffffffffff021916908373ffffffffffffffffffffffffffffffffffffffff16021790555050505050505050610c9d806101ca6000396000f300608060405260043610610078576000357c0100000000000000000000000000000000000000000000000000000000900463ffffffff16806329c08ba21461007d5780633fecfbf2146100875780637f74ac15146100ce5780638da5cb5b14610125578063b50461031461017c578063ea8a1af014610193575b600080fd5b6100856101aa565b005b34801561009357600080fd5b5061009c6104f2565b604051808681526020018581526020018481526020018381526020018281526020019550505050505060405180910390f35b3480156100da57600080fd5b506100e361066a565b604051808273ffffffffffffffffffffffffffffffffffffffff1673ffffffffffffffffffffffffffffffffffffffff16815260200191505060405180910390f35b34801561013157600080fd5b5061013a610690565b604051808273ffffffffffffffffffffffffffffffffffffffff1673ffffffffffffffffffffffffffffffffffffffff16815260200191505060405180910390f35b34801561018857600080fd5b506101916106b5565b005b34801561019f57600080fd5b506101a86109e3565b005b6000809054906101000a900473ffffffffffffffffffffffffffffffffffffffff1673ffffffffffffffffffffffffffffffffffffffff163373ffffffffffffffffffffffffffffffffffffffff1614806102525750600160009054906101000a900473ffffffffffffffffffffffffffffffffffffffff1673ffffffffffffffffffffffffffffffffffffffff163373ffffffffffffffffffffffffffffffffffffffff16145b15156102ec576040517f08c379a00000000000000000000000000000000000000000000000000000000081526004018080602001828103825260298152602001807f4f6e6c7920706f6c696379206f776e65722063616e2063616c6c20746869732081526020017f66756e6374696f6e2e000000000000000000000000000000000000000000000081525060400191505060405180910390fd5b600060038111156102f957fe5b600760009054906101000a900460ff16600381111561031457fe5b1415156103af576040517f08c379a000000000000000000000000000000000000000000000000000000000815260040180806020018281038252602f8152602001807f546869732066756e6374696f6e2063616e2063616c6c206f6e6c7920666f722081526020017f6f6e676f696e6720706f6c6963792e000000000000000000000000000000000081525060400191505060405180910390fd5b622820a8600260040160008282540192505081905550600760019054906101000a900473ffffffffffffffffffffffffffffffffffffffff1673ffffffffffffffffffffffffffffffffffffffff166329c08ba2346040518263ffffffff167c01000000000000000000000000000000000000000000000000000000000281526004016000604051808303818588803b15801561044b57600080fd5b505af115801561045f573d6000803e3d6000fd5b50505050507fa21795436a9f6a3b412fd6780f01a49907f2181e76e938496b0a41991d99b61c6000809054906101000a900473ffffffffffffffffffffffffffffffffffffffff1634604051808373ffffffffffffffffffffffffffffffffffffffff1673ffffffffffffffffffffffffffffffffffffffff1681526020018281526020019250505060405180910390a1565b60008060008060008060009054906101000a900473ffffffffffffffffffffffffffffffffffffffff1673ffffffffffffffffffffffffffffffffffffffff163373ffffffffffffffffffffffffffffffffffffffff1614806105a25750600160009054906101000a900473ffffffffffffffffffffffffffffffffffffffff1673ffffffffffffffffffffffffffffffffffffffff163373ffffffffffffffffffffffffffffffffffffffff16145b151561063c576040517f08c379a00000000000000000000000000000000000000000000000000000000081526004018080602001828103825260298152602001807f4f6e6c7920706f6c696379206f776e65722063616e2063616c6c20746869732081526020017f66756e6374696f6e2e000000000000000000000000000000000000000000000081525060400191505060405180910390fd5b6002600001546002600101546002800154600260030154600260040154945094509450945094509091929394565b600160009054906101000a900473ffffffffffffffffffffffffffffffffffffffff1681565b6000809054906101000a900473ffffffffffffffffffffffffffffffffffffffff1681565b6000809054906101000a900473ffffffffffffffffffffffffffffffffffffffff1673ffffffffffffffffffffffffffffffffffffffff163373ffffffffffffffffffffffffffffffffffffffff16148061075d5750600160009054906101000a900473ffffffffffffffffffffffffffffffffffffffff1673ffffffffffffffffffffffffffffffffffffffff163373ffffffffffffffffffffffffffffffffffffffff16145b15156107f7576040517f08c379a00000000000000000000000000000000000000000000000000000000081526004018080602001828103825260298152602001807f4f6e6c7920706f6c696379206f776e65722063616e2063616c6c20746869732081526020017f66756e6374696f6e2e000000000000000000000000000000000000000000000081525060400191505060405180910390fd5b6000600381111561080457fe5b600760009054906101000a900460ff16600381111561081f57fe5b1415156108ba576040517f08c379a000000000000000000000000000000000000000000000000000000000815260040180806020018281038252602f8152602001807f546869732066756e6374696f6e2063616e2063616c6c206f6e6c7920666f722081526020017f6f6e676f696e6720706f6c6963792e000000000000000000000000000000000081525060400191505060405180910390fd5b6002600760006101000a81548160ff021916908360038111156108d957fe5b0217905550600760019054906101000a900473ffffffffffffffffffffffffffffffffffffffff1673ffffffffffffffffffffffffffffffffffffffff1663666c52d26000809054906101000a900473ffffffffffffffffffffffffffffffffffffffff166002600301546040518363ffffffff167c0100000000000000000000000000000000000000000000000000000000028152600401808373ffffffffffffffffffffffffffffffffffffffff1673ffffffffffffffffffffffffffffffffffffffff16815260200182815260200192505050600060405180830381600087803b1580156109c957600080fd5b505af11580156109dd573d6000803e3d6000fd5b50505050565b6000809054906101000a900473ffffffffffffffffffffffffffffffffffffffff1673ffffffffffffffffffffffffffffffffffffffff163373ffffffffffffffffffffffffffffffffffffffff161480610a8b5750600160009054906101000a900473ffffffffffffffffffffffffffffffffffffffff1673ffffffffffffffffffffffffffffffffffffffff163373ffffffffffffffffffffffffffffffffffffffff16145b1515610b25576040517f08c379a00000000000000000000000000000000000000000000000000000000081526004018080602001828103825260298152602001807f4f6e6c7920706f6c696379206f776e65722063616e2063616c6c20746869732081526020017f66756e6374696f6e2e000000000000000000000000000000000000000000000081525060400191505060405180910390fd5b60006003811115610b3257fe5b600760009054906101000a900460ff166003811115610b4d57fe5b141515610be8576040517f08c379a000000000000000000000000000000000000000000000000000000000815260040180806020018281038252602f8152602001807f546869732066756e6374696f6e2063616e2063616c6c206f6e6c7920666f722081526020017f6f6e676f696e6720706f6c6963792e000000000000000000000000000000000081525060400191505060405180910390fd5b6001600760006101000a81548160ff02191690836003811115610c0757fe5b02179055507f885d66cbf95119e71ee4d46cb5794b6cae8beb42d312eebf331c1a26f50396cd33604051808273ffffffffffffffffffffffffffffffffffffffff1673ffffffffffffffffffffffffffffffffffffffff16815260200191505060405180910390a15600a165627a7a7230582023b8fb8da6ca9e2d27299f21d9f93712e4dd78dfd2fa1913ff0d0b788332dce00029a165627a7a72305820f39630a04ad7bbc637fd97bc7f8f011369a53caf8b222d83ecf2cd6fe506e76d0029",
  "source": "pragma solidity ^0.4.23;\n\nimport \"./UserRegistry.sol\";\nimport \"./InsuranceFund.sol\";\nimport \"./Policy.sol\";\n\ncontract User {\n  struct Profile {\n    string name;\n    uint birthDate;\n    string city;\n    string gender;\n  }\n\n  address public owner;\n  UserRegistry public registry;\n  Profile private _profile;\n  Policy private _policy;\n  InsuranceFund private _fund;\n\n  event UserProfileUpdated(string name, uint birthDate, string city, string gender);\n  event PolicyCreated(Policy policy);\n\n  modifier onlyOwner() {\n    require(msg.sender == owner, \"Only owner can call this function.\");\n    _;\n  }\n\n  modifier havePolicy() {\n    require(_policy != 0x0000000000000000000000000000000000000000, \"You don't have policy\");\n    _;\n  }\n\n  constructor(address owner_, InsuranceFund fund_) public {\n    require(address(owner_) != 0x0, \"Wrong address\");\n    require(msg.sender != 0x0, \"Wrong address.\");\n\n    owner = owner_;\n    _fund = fund_;\n    registry = UserRegistry(msg.sender);\n  }\n\n  function getProfileInfo() public view onlyOwner returns (\n    string name,\n    uint birthDate,\n    string city,\n    string gender\n  ) {\n    return (_profile.name, _profile.birthDate, _profile.city, _profile.gender);\n  }\n\n  function setProfileInfo(\n    string name,\n    uint birthDate,\n    string city, \n    string gender\n  ) public onlyOwner {\n    _profile.name = name;\n    _profile.birthDate = birthDate;\n    _profile.city = city;\n    _profile.gender = gender;\n\n    emit UserProfileUpdated(name, birthDate, city, gender);\n  }\n\n  function createPolicy(uint compensation, uint duration, uint premium) public onlyOwner {\n    // require(_profile.birthDate < 18 * 365.25 days, \"You are too young to do this.\");\n    // require(duration > 30 * 365.25 days, \"Too long policy\");\n    // require(compensation > 10000 ether, \"Too big compensation\");\n    // TODO: check if policy exist\n\n    Policy policy = new Policy(msg.sender, address(this), now, now + duration, premium, compensation, _fund);\n\n    _policy = policy;\n\n    emit PolicyCreated(policy);\n  }\n\n  function getPolicy() public view onlyOwner havePolicy returns(Policy) {\n    return _policy;\n  }\n\n  function cancelPolicy() external onlyOwner havePolicy {\n    Policy tmp = _policy;\n\n    delete _policy;\n\n    tmp.cancel();\n  }\n\n  function payPremium() external payable onlyOwner havePolicy {\n    _policy.payPremium.value(msg.value)();\n  }\n\n  function reportInsuredEvent() external onlyOwner havePolicy {\n    Policy tmp = _policy;\n\n    delete _policy;\n\n    tmp.reportInsuredEvent();\n  }\n}",
  "sourcePath": "/Users/yurakulynych/Documents/study/mutual-insurance/contracts/User.sol",
  "compiler": {
    "name": "solc",
    "version": "0.4.24+commit.e67f0147.Emscripten.clang"
  },
  "schemaVersion": "2.0.1",
  "updatedAt": "2018-11-03T07:57:25.492Z"
}