{
  "contractName": "User",
  "abi": [
    {
      "constant": true,
      "inputs": [],
      "name": "registry",
      "outputs": [
        {
          "name": "",
          "type": "address"
        }
      ],
      "payable": false,
      "stateMutability": "view",
      "type": "function"
    },
    {
      "constant": true,
      "inputs": [],
      "name": "owner",
      "outputs": [
        {
          "name": "",
          "type": "address"
        }
      ],
      "payable": false,
      "stateMutability": "view",
      "type": "function"
    },
    {
      "constant": true,
      "inputs": [],
      "name": "fund",
      "outputs": [
        {
          "name": "",
          "type": "address"
        }
      ],
      "payable": false,
      "stateMutability": "view",
      "type": "function"
    },
    {
      "inputs": [
        {
          "name": "owner_",
          "type": "address"
        },
        {
          "name": "fund_",
          "type": "address"
        },
        {
          "name": "name_",
          "type": "string"
        },
        {
          "name": "city_",
          "type": "string"
        },
        {
          "name": "gender_",
          "type": "string"
        },
        {
          "name": "birthDate_",
          "type": "uint256"
        }
      ],
      "payable": false,
      "stateMutability": "nonpayable",
      "type": "constructor"
    },
    {
      "anonymous": false,
      "inputs": [
        {
          "indexed": false,
          "name": "name",
          "type": "string"
        },
        {
          "indexed": false,
          "name": "city",
          "type": "string"
        },
        {
          "indexed": false,
          "name": "gender",
          "type": "string"
        },
        {
          "indexed": false,
          "name": "birthDate",
          "type": "uint256"
        }
      ],
      "name": "UserProfileUpdated",
      "type": "event"
    },
    {
      "anonymous": false,
      "inputs": [
        {
          "indexed": false,
          "name": "policy",
          "type": "address"
        }
      ],
      "name": "PolicyCreated",
      "type": "event"
    },
    {
      "constant": true,
      "inputs": [],
      "name": "getProfileInfo",
      "outputs": [
        {
          "name": "name",
          "type": "string"
        },
        {
          "name": "city",
          "type": "string"
        },
        {
          "name": "gender",
          "type": "string"
        },
        {
          "name": "birthDate",
          "type": "uint256"
        }
      ],
      "payable": false,
      "stateMutability": "view",
      "type": "function"
    },
    {
      "constant": false,
      "inputs": [
        {
          "name": "name",
          "type": "string"
        },
        {
          "name": "birthDate",
          "type": "uint256"
        },
        {
          "name": "city",
          "type": "string"
        },
        {
          "name": "gender",
          "type": "string"
        }
      ],
      "name": "setProfileInfo",
      "outputs": [],
      "payable": false,
      "stateMutability": "nonpayable",
      "type": "function"
    },
    {
      "constant": false,
      "inputs": [
        {
          "name": "currentTime",
          "type": "uint256"
        },
        {
          "name": "duration",
          "type": "uint256"
        },
        {
          "name": "premium",
          "type": "uint256"
        },
        {
          "name": "compensation",
          "type": "uint256"
        }
      ],
      "name": "createPolicy",
      "outputs": [],
      "payable": false,
      "stateMutability": "nonpayable",
      "type": "function"
    },
    {
      "constant": true,
      "inputs": [],
      "name": "getPolicy",
      "outputs": [
        {
          "name": "",
          "type": "address"
        }
      ],
      "payable": false,
      "stateMutability": "view",
      "type": "function"
    },
    {
      "constant": false,
      "inputs": [],
      "name": "cancelPolicy",
      "outputs": [],
      "payable": false,
      "stateMutability": "nonpayable",
      "type": "function"
    },
    {
      "constant": false,
      "inputs": [],
      "name": "payPremium",
      "outputs": [],
      "payable": true,
      "stateMutability": "payable",
      "type": "function"
    },
    {
      "constant": false,
      "inputs": [],
      "name": "reportInsuredEvent",
      "outputs": [],
      "payable": false,
      "stateMutability": "nonpayable",
      "type": "function"
    }
  ],
  "bytecode": "0x60806040523480156200001157600080fd5b5060405162002c5b38038062002c5b83398101806040528101908080519060200190929190805190602001909291908051820192919060200180518201929190602001805182019291906020018051906020019092919050505060008673ffffffffffffffffffffffffffffffffffffffff1614151515620000fb576040517f08c379a000000000000000000000000000000000000000000000000000000000815260040180806020018281038252600d8152602001807f57726f6e6720616464726573730000000000000000000000000000000000000081525060200191505060405180910390fd5b60003373ffffffffffffffffffffffffffffffffffffffff16141515156200018b576040517f08c379a000000000000000000000000000000000000000000000000000000000815260040180806020018281038252600e8152602001807f57726f6e6720616464726573732e00000000000000000000000000000000000081525060200191505060405180910390fd5b8360036000019080519060200190620001a6929190620002b6565b508060038001819055508260036001019080519060200190620001cb929190620002b6565b508160036002019080519060200190620001e7929190620002b6565b50856000806101000a81548173ffffffffffffffffffffffffffffffffffffffff021916908373ffffffffffffffffffffffffffffffffffffffff16021790555084600260006101000a81548173ffffffffffffffffffffffffffffffffffffffff021916908373ffffffffffffffffffffffffffffffffffffffff16021790555033600160006101000a81548173ffffffffffffffffffffffffffffffffffffffff021916908373ffffffffffffffffffffffffffffffffffffffff16021790555050505050505062000365565b828054600181600116156101000203166002900490600052602060002090601f016020900481019282601f10620002f957805160ff19168380011785556200032a565b828001600101855582156200032a579182015b82811115620003295782518255916020019190600101906200030c565b5b5090506200033991906200033d565b5090565b6200036291905b808211156200035e57600081600090555060010162000344565b5090565b90565b6128e680620003756000396000f300608060405260043610620000af576000357c0100000000000000000000000000000000000000000000000000000000900463ffffffff16806329c08ba214620000b45780633bafe31314620000c05780634ef2cc00146200023b578063690a2d3414620002555780637b10399914620002a35780638da5cb5b14620002fd5780639863a52d1462000357578063b50461031462000459578063b60d42881462000473578063ce1e462614620004cd575b600080fd5b620000be62000527565b005b348015620000cd57600080fd5b50620000d86200077d565b60405180806020018060200180602001858152602001848103845288818151815260200191508051906020019080838360005b83811015620001285780820151818401526020810190506200010b565b50505050905090810190601f168015620001565780820380516001836020036101000a031916815260200191505b50848103835287818151815260200191508051906020019080838360005b838110156200019157808201518184015260208101905062000174565b50505050905090810190601f168015620001bf5780820380516001836020036101000a031916815260200191505b50848103825286818151815260200191508051906020019080838360005b83811015620001fa578082015181840152602081019050620001dd565b50505050905090810190601f168015620002285780820380516001836020036101000a031916815260200191505b5097505050505050505060405180910390f35b3480156200024857600080fd5b506200025362000a71565b005b3480156200026257600080fd5b50620002a16004803603810190808035906020019092919080359060200190929190803590602001909291908035906020019092919050505062000cf1565b005b348015620002b057600080fd5b50620002bb6200105d565b604051808273ffffffffffffffffffffffffffffffffffffffff1673ffffffffffffffffffffffffffffffffffffffff16815260200191505060405180910390f35b3480156200030a57600080fd5b506200031562001083565b604051808273ffffffffffffffffffffffffffffffffffffffff1673ffffffffffffffffffffffffffffffffffffffff16815260200191505060405180910390f35b3480156200036457600080fd5b5062000457600480360381019080803590602001908201803590602001908080601f016020809104026020016040519081016040528093929190818152602001838380828437820191505050505050919291929080359060200190929190803590602001908201803590602001908080601f0160208091040260200160405190810160405280939291908181526020018383808284378201915050505050509192919290803590602001908201803590602001908080601f0160208091040260200160405190810160405280939291908181526020018383808284378201915050505050509192919290505050620010a8565b005b3480156200046657600080fd5b50620004716200137d565b005b3480156200048057600080fd5b506200048b620015fd565b604051808273ffffffffffffffffffffffffffffffffffffffff1673ffffffffffffffffffffffffffffffffffffffff16815260200191505060405180910390f35b348015620004da57600080fd5b50620004e562001623565b604051808273ffffffffffffffffffffffffffffffffffffffff1673ffffffffffffffffffffffffffffffffffffffff16815260200191505060405180910390f35b6000809054906101000a900473ffffffffffffffffffffffffffffffffffffffff1673ffffffffffffffffffffffffffffffffffffffff163373ffffffffffffffffffffffffffffffffffffffff1614151562000612576040517f08c379a00000000000000000000000000000000000000000000000000000000081526004018080602001828103825260228152602001807f4f6e6c79206f776e65722063616e2063616c6c20746869732066756e6374696f81526020017f6e2e00000000000000000000000000000000000000000000000000000000000081525060400191505060405180910390fd5b600073ffffffffffffffffffffffffffffffffffffffff16600760009054906101000a900473ffffffffffffffffffffffffffffffffffffffff1673ffffffffffffffffffffffffffffffffffffffff1614151515620006da576040517f08c379a00000000000000000000000000000000000000000000000000000000081526004018080602001828103825260188152602001807f596f7520646f6e27742068617665206120706f6c6963792e000000000000000081525060200191505060405180910390fd5b600760009054906101000a900473ffffffffffffffffffffffffffffffffffffffff1673ffffffffffffffffffffffffffffffffffffffff166329c08ba2346040518263ffffffff167c01000000000000000000000000000000000000000000000000000000000281526004016000604051808303818588803b1580156200076157600080fd5b505af115801562000776573d6000803e3d6000fd5b5050505050565b606080606060008060009054906101000a900473ffffffffffffffffffffffffffffffffffffffff1673ffffffffffffffffffffffffffffffffffffffff163373ffffffffffffffffffffffffffffffffffffffff161415156200086f576040517f08c379a00000000000000000000000000000000000000000000000000000000081526004018080602001828103825260228152602001807f4f6e6c79206f776e65722063616e2063616c6c20746869732066756e6374696f81526020017f6e2e00000000000000000000000000000000000000000000000000000000000081525060400191505060405180910390fd5b6003600001600360010160036002016003800154838054600181600116156101000203166002900480601f0160208091040260200160405190810160405280929190818152602001828054600181600116156101000203166002900480156200091c5780601f10620008f0576101008083540402835291602001916200091c565b820191906000526020600020905b815481529060010190602001808311620008fe57829003601f168201915b50505050509350828054600181600116156101000203166002900480601f016020809104026020016040519081016040528092919081815260200182805460018160011615610100020316600290048015620009bc5780601f106200099057610100808354040283529160200191620009bc565b820191906000526020600020905b8154815290600101906020018083116200099e57829003601f168201915b50505050509250818054600181600116156101000203166002900480601f01602080910402602001604051908101604052809291908181526020018280546001816001161561010002031660029004801562000a5c5780601f1062000a305761010080835404028352916020019162000a5c565b820191906000526020600020905b81548152906001019060200180831162000a3e57829003601f168201915b50505050509150935093509350935090919293565b60008060009054906101000a900473ffffffffffffffffffffffffffffffffffffffff1673ffffffffffffffffffffffffffffffffffffffff163373ffffffffffffffffffffffffffffffffffffffff1614151562000b5e576040517f08c379a00000000000000000000000000000000000000000000000000000000081526004018080602001828103825260228152602001807f4f6e6c79206f776e65722063616e2063616c6c20746869732066756e6374696f81526020017f6e2e00000000000000000000000000000000000000000000000000000000000081525060400191505060405180910390fd5b600073ffffffffffffffffffffffffffffffffffffffff16600760009054906101000a900473ffffffffffffffffffffffffffffffffffffffff1673ffffffffffffffffffffffffffffffffffffffff161415151562000c26576040517f08c379a00000000000000000000000000000000000000000000000000000000081526004018080602001828103825260188152602001807f596f7520646f6e27742068617665206120706f6c6963792e000000000000000081525060200191505060405180910390fd5b600760009054906101000a900473ffffffffffffffffffffffffffffffffffffffff169050600760006101000a81549073ffffffffffffffffffffffffffffffffffffffff02191690558073ffffffffffffffffffffffffffffffffffffffff1663ea8a1af06040518163ffffffff167c0100000000000000000000000000000000000000000000000000000000028152600401600060405180830381600087803b15801562000cd557600080fd5b505af115801562000cea573d6000803e3d6000fd5b5050505050565b60008060009054906101000a900473ffffffffffffffffffffffffffffffffffffffff1673ffffffffffffffffffffffffffffffffffffffff163373ffffffffffffffffffffffffffffffffffffffff1614151562000dde576040517f08c379a00000000000000000000000000000000000000000000000000000000081526004018080602001828103825260228152602001807f4f6e6c79206f776e65722063616e2063616c6c20746869732066756e6374696f81526020017f6e2e00000000000000000000000000000000000000000000000000000000000081525060400191505060405180910390fd5b600073ffffffffffffffffffffffffffffffffffffffff16600760009054906101000a900473ffffffffffffffffffffffffffffffffffffffff1673ffffffffffffffffffffffffffffffffffffffff1614151562000ea5576040517f08c379a000000000000000000000000000000000000000000000000000000000815260040180806020018281038252601a8152602001807f596f7520616c72656164792068617665206120706f6c6963792100000000000081525060200191505060405180910390fd5b3330868688018686600260009054906101000a900473ffffffffffffffffffffffffffffffffffffffff1662000eda62001800565b808873ffffffffffffffffffffffffffffffffffffffff1673ffffffffffffffffffffffffffffffffffffffff1681526020018773ffffffffffffffffffffffffffffffffffffffff1673ffffffffffffffffffffffffffffffffffffffff1681526020018681526020018581526020018481526020018381526020018273ffffffffffffffffffffffffffffffffffffffff1673ffffffffffffffffffffffffffffffffffffffff168152602001975050505050505050604051809103906000f08015801562000faf573d6000803e3d6000fd5b50905080600760006101000a81548173ffffffffffffffffffffffffffffffffffffffff021916908373ffffffffffffffffffffffffffffffffffffffff1602179055507f2f111d8a56aa0ad671b0442ae028827407496656571a697781157db90a03ae1481604051808273ffffffffffffffffffffffffffffffffffffffff1673ffffffffffffffffffffffffffffffffffffffff16815260200191505060405180910390a15050505050565b600160009054906101000a900473ffffffffffffffffffffffffffffffffffffffff1681565b6000809054906101000a900473ffffffffffffffffffffffffffffffffffffffff1681565b6000809054906101000a900473ffffffffffffffffffffffffffffffffffffffff1673ffffffffffffffffffffffffffffffffffffffff163373ffffffffffffffffffffffffffffffffffffffff1614151562001193576040517f08c379a00000000000000000000000000000000000000000000000000000000081526004018080602001828103825260228152602001807f4f6e6c79206f776e65722063616e2063616c6c20746869732066756e6374696f81526020017f6e2e00000000000000000000000000000000000000000000000000000000000081525060400191505060405180910390fd5b8360036000019080519060200190620011ae92919062001811565b508260038001819055508160036001019080519060200190620011d392919062001811565b508060036002019080519060200190620011ef92919062001811565b507f9272e88c8adb261812c043f8d2e7f9215982142cda05d86dd7d19f4abd0cde418483838660405180806020018060200180602001858152602001848103845288818151815260200191508051906020019080838360005b838110156200126557808201518184015260208101905062001248565b50505050905090810190601f168015620012935780820380516001836020036101000a031916815260200191505b50848103835287818151815260200191508051906020019080838360005b83811015620012ce578082015181840152602081019050620012b1565b50505050905090810190601f168015620012fc5780820380516001836020036101000a031916815260200191505b50848103825286818151815260200191508051906020019080838360005b83811015620013375780820151818401526020810190506200131a565b50505050905090810190601f168015620013655780820380516001836020036101000a031916815260200191505b5097505050505050505060405180910390a150505050565b60008060009054906101000a900473ffffffffffffffffffffffffffffffffffffffff1673ffffffffffffffffffffffffffffffffffffffff163373ffffffffffffffffffffffffffffffffffffffff161415156200146a576040517f08c379a00000000000000000000000000000000000000000000000000000000081526004018080602001828103825260228152602001807f4f6e6c79206f776e65722063616e2063616c6c20746869732066756e6374696f81526020017f6e2e00000000000000000000000000000000000000000000000000000000000081525060400191505060405180910390fd5b600073ffffffffffffffffffffffffffffffffffffffff16600760009054906101000a900473ffffffffffffffffffffffffffffffffffffffff1673ffffffffffffffffffffffffffffffffffffffff161415151562001532576040517f08c379a00000000000000000000000000000000000000000000000000000000081526004018080602001828103825260188152602001807f596f7520646f6e27742068617665206120706f6c6963792e000000000000000081525060200191505060405180910390fd5b600760009054906101000a900473ffffffffffffffffffffffffffffffffffffffff169050600760006101000a81549073ffffffffffffffffffffffffffffffffffffffff02191690558073ffffffffffffffffffffffffffffffffffffffff1663b50461036040518163ffffffff167c0100000000000000000000000000000000000000000000000000000000028152600401600060405180830381600087803b158015620015e157600080fd5b505af1158015620015f6573d6000803e3d6000fd5b5050505050565b600260009054906101000a900473ffffffffffffffffffffffffffffffffffffffff1681565b60008060009054906101000a900473ffffffffffffffffffffffffffffffffffffffff1673ffffffffffffffffffffffffffffffffffffffff163373ffffffffffffffffffffffffffffffffffffffff1614151562001710576040517f08c379a00000000000000000000000000000000000000000000000000000000081526004018080602001828103825260228152602001807f4f6e6c79206f776e65722063616e2063616c6c20746869732066756e6374696f81526020017f6e2e00000000000000000000000000000000000000000000000000000000000081525060400191505060405180910390fd5b600073ffffffffffffffffffffffffffffffffffffffff16600760009054906101000a900473ffffffffffffffffffffffffffffffffffffffff1673ffffffffffffffffffffffffffffffffffffffff1614151515620017d8576040517f08c379a00000000000000000000000000000000000000000000000000000000081526004018080602001828103825260188152602001807f596f7520646f6e27742068617665206120706f6c6963792e000000000000000081525060200191505060405180910390fd5b600760009054906101000a900473ffffffffffffffffffffffffffffffffffffffff16905090565b604051610ffa80620018c183390190565b828054600181600116156101000203166002900490600052602060002090601f016020900481019282601f106200185457805160ff191683800117855562001885565b8280016001018555821562001885579182015b828111156200188457825182559160200191906001019062001867565b5b50905062001894919062001898565b5090565b620018bd91905b80821115620018b95760008160009055506001016200189f565b5090565b905600608060405234801561001057600080fd5b5060405160e080610ffa833981018060405281019080805190602001909291908051906020019092919080519060200190929190805190602001909291908051906020019092919080519060200190929190805190602001909291905050506492f3973c008585031015156100ed576040517f08c379a000000000000000000000000000000000000000000000000000000000815260040180806020018281038252600f8152602001807f546f6f206c6f6e6720706f6c696379000000000000000000000000000000000081525060200191505060405180910390fd5b68056bc75e2d631000008210151561016d576040517f08c379a00000000000000000000000000000000000000000000000000000000081526004018080602001828103825260148152602001807f546f6f2062696720636f6d70656e736174696f6e00000000000000000000000081525060200191505060405180910390fd5b866000806101000a81548173ffffffffffffffffffffffffffffffffffffffff021916908373ffffffffffffffffffffffffffffffffffffffff16021790555085600160006101000a81548173ffffffffffffffffffffffffffffffffffffffff021916908373ffffffffffffffffffffffffffffffffffffffff16021790555060a06040519081016040528086815260200185815260200184815260200183815260200186815250600360008201518160000155602082015181600101556040820151816002015560608201518160030155608082015181600401559050506000600860006101000a81548160ff0219169083600381111561026c57fe5b021790555080600260006101000a81548173ffffffffffffffffffffffffffffffffffffffff021916908373ffffffffffffffffffffffffffffffffffffffff16021790555050505050505050610d32806102c86000396000f300608060405260043610610083576000357c0100000000000000000000000000000000000000000000000000000000900463ffffffff16806329c08ba2146100885780633fecfbf2146100925780637f74ac15146100d95780638da5cb5b14610130578063b504610314610187578063b60d42881461019e578063ea8a1af0146101f5575b600080fd5b61009061020c565b005b34801561009e57600080fd5b506100a7610562565b604051808681526020018581526020018481526020018381526020018281526020019550505050505060405180910390f35b3480156100e557600080fd5b506100ee6106da565b604051808273ffffffffffffffffffffffffffffffffffffffff1673ffffffffffffffffffffffffffffffffffffffff16815260200191505060405180910390f35b34801561013c57600080fd5b50610145610700565b604051808273ffffffffffffffffffffffffffffffffffffffff1673ffffffffffffffffffffffffffffffffffffffff16815260200191505060405180910390f35b34801561019357600080fd5b5061019c610725565b005b3480156101aa57600080fd5b506101b3610a52565b604051808273ffffffffffffffffffffffffffffffffffffffff1673ffffffffffffffffffffffffffffffffffffffff16815260200191505060405180910390f35b34801561020157600080fd5b5061020a610a78565b005b6000809054906101000a900473ffffffffffffffffffffffffffffffffffffffff1673ffffffffffffffffffffffffffffffffffffffff163373ffffffffffffffffffffffffffffffffffffffff1614806102b45750600160009054906101000a900473ffffffffffffffffffffffffffffffffffffffff1673ffffffffffffffffffffffffffffffffffffffff163373ffffffffffffffffffffffffffffffffffffffff16145b151561034e576040517f08c379a00000000000000000000000000000000000000000000000000000000081526004018080602001828103825260298152602001807f4f6e6c7920706f6c696379206f776e65722063616e2063616c6c20746869732081526020017f66756e6374696f6e2e000000000000000000000000000000000000000000000081525060400191505060405180910390fd5b6000600381111561035b57fe5b600860009054906101000a900460ff16600381111561037657fe5b141515610411576040517f08c379a000000000000000000000000000000000000000000000000000000000815260040180806020018281038252602f8152602001807f546869732066756e6374696f6e2063616e2063616c6c206f6e6c7920666f722081526020017f6f6e676f696e6720706f6c6963792e000000000000000000000000000000000081525060400191505060405180910390fd5b639cbf9040600360040160008282540192505081905550600260009054906101000a900473ffffffffffffffffffffffffffffffffffffffff1673ffffffffffffffffffffffffffffffffffffffff166329c08ba2346040518263ffffffff167c01000000000000000000000000000000000000000000000000000000000281526004016000604051808303818588803b1580156104ae57600080fd5b505af11580156104c2573d6000803e3d6000fd5b50505050507f395bd21029ce552d1941c174d800a5599c4b1b28887cc9b9eea83c5409da93ef6000809054906101000a900473ffffffffffffffffffffffffffffffffffffffff1634600360040154604051808473ffffffffffffffffffffffffffffffffffffffff1673ffffffffffffffffffffffffffffffffffffffff168152602001838152602001828152602001935050505060405180910390a1565b60008060008060008060009054906101000a900473ffffffffffffffffffffffffffffffffffffffff1673ffffffffffffffffffffffffffffffffffffffff163373ffffffffffffffffffffffffffffffffffffffff1614806106125750600160009054906101000a900473ffffffffffffffffffffffffffffffffffffffff1673ffffffffffffffffffffffffffffffffffffffff163373ffffffffffffffffffffffffffffffffffffffff16145b15156106ac576040517f08c379a00000000000000000000000000000000000000000000000000000000081526004018080602001828103825260298152602001807f4f6e6c7920706f6c696379206f776e65722063616e2063616c6c20746869732081526020017f66756e6374696f6e2e000000000000000000000000000000000000000000000081525060400191505060405180910390fd5b6003600001546003600101546003600201546003800154600360040154945094509450945094509091929394565b600160009054906101000a900473ffffffffffffffffffffffffffffffffffffffff1681565b6000809054906101000a900473ffffffffffffffffffffffffffffffffffffffff1681565b6000809054906101000a900473ffffffffffffffffffffffffffffffffffffffff1673ffffffffffffffffffffffffffffffffffffffff163373ffffffffffffffffffffffffffffffffffffffff1614806107cd5750600160009054906101000a900473ffffffffffffffffffffffffffffffffffffffff1673ffffffffffffffffffffffffffffffffffffffff163373ffffffffffffffffffffffffffffffffffffffff16145b1515610867576040517f08c379a00000000000000000000000000000000000000000000000000000000081526004018080602001828103825260298152602001807f4f6e6c7920706f6c696379206f776e65722063616e2063616c6c20746869732081526020017f66756e6374696f6e2e000000000000000000000000000000000000000000000081525060400191505060405180910390fd5b6000600381111561087457fe5b600860009054906101000a900460ff16600381111561088f57fe5b14151561092a576040517f08c379a000000000000000000000000000000000000000000000000000000000815260040180806020018281038252602f8152602001807f546869732066756e6374696f6e2063616e2063616c6c206f6e6c7920666f722081526020017f6f6e676f696e6720706f6c6963792e000000000000000000000000000000000081525060400191505060405180910390fd5b6002600860006101000a81548160ff0219169083600381111561094957fe5b0217905550600260009054906101000a900473ffffffffffffffffffffffffffffffffffffffff1673ffffffffffffffffffffffffffffffffffffffff1663666c52d26000809054906101000a900473ffffffffffffffffffffffffffffffffffffffff1660038001546040518363ffffffff167c0100000000000000000000000000000000000000000000000000000000028152600401808373ffffffffffffffffffffffffffffffffffffffff1673ffffffffffffffffffffffffffffffffffffffff16815260200182815260200192505050600060405180830381600087803b158015610a3857600080fd5b505af1158015610a4c573d6000803e3d6000fd5b50505050565b600260009054906101000a900473ffffffffffffffffffffffffffffffffffffffff1681565b6000809054906101000a900473ffffffffffffffffffffffffffffffffffffffff1673ffffffffffffffffffffffffffffffffffffffff163373ffffffffffffffffffffffffffffffffffffffff161480610b205750600160009054906101000a900473ffffffffffffffffffffffffffffffffffffffff1673ffffffffffffffffffffffffffffffffffffffff163373ffffffffffffffffffffffffffffffffffffffff16145b1515610bba576040517f08c379a00000000000000000000000000000000000000000000000000000000081526004018080602001828103825260298152602001807f4f6e6c7920706f6c696379206f776e65722063616e2063616c6c20746869732081526020017f66756e6374696f6e2e000000000000000000000000000000000000000000000081525060400191505060405180910390fd5b60006003811115610bc757fe5b600860009054906101000a900460ff166003811115610be257fe5b141515610c7d576040517f08c379a000000000000000000000000000000000000000000000000000000000815260040180806020018281038252602f8152602001807f546869732066756e6374696f6e2063616e2063616c6c206f6e6c7920666f722081526020017f6f6e676f696e6720706f6c6963792e000000000000000000000000000000000081525060400191505060405180910390fd5b6001600860006101000a81548160ff02191690836003811115610c9c57fe5b02179055507f885d66cbf95119e71ee4d46cb5794b6cae8beb42d312eebf331c1a26f50396cd33604051808273ffffffffffffffffffffffffffffffffffffffff1673ffffffffffffffffffffffffffffffffffffffff16815260200191505060405180910390a15600a165627a7a72305820bf5460f26a97daeaf9b702797b542bbb2c5ace28583227497e800d4b7e485e220029a165627a7a72305820513a1b00b8a10d2b61e774a29bf86f8b7efcbe8c212aa80b7f73bc463c1e61180029",
  "source": "pragma solidity ^0.4.23;\n\nimport \"./UserRegistry.sol\";\nimport \"./InsuranceFund.sol\";\nimport \"./Policy.sol\";\n\ncontract User {\n  struct Profile {\n    string name;\n    string city;\n    string gender;\n    uint birthDate;\n  }\n\n  address public owner;\n  UserRegistry public registry;\n  InsuranceFund public fund;\n\n  Profile private _profile;\n  Policy private _policy;\n\n  event UserProfileUpdated(string name, string city, string gender, uint birthDate);\n  event PolicyCreated(Policy policy);\n\n  modifier onlyOwner() {\n    require(msg.sender == owner, \"Only owner can call this function.\");\n    _;\n  }\n\n  modifier havePolicy() {\n    require(_policy != 0x0000000000000000000000000000000000000000, \"You don't have a policy.\");\n    _;\n  }\n\n  constructor(\n    address owner_,\n    InsuranceFund fund_,\n    string name_,\n    string city_,\n    string gender_,\n    uint birthDate_\n  ) public {\n    require(address(owner_) != 0x0, \"Wrong address\");\n    require(msg.sender != 0x0, \"Wrong address.\");\n\n    _profile.name = name_;\n    _profile.birthDate = birthDate_;\n    _profile.city = city_;\n    _profile.gender = gender_;\n  \n    owner = owner_;\n    fund = fund_;\n    registry = UserRegistry(msg.sender);\n  }\n\n  function getProfileInfo() public view onlyOwner returns (\n    string name,\n    string city,\n    string gender,\n    uint birthDate\n  ) {\n    return (_profile.name, _profile.city, _profile.gender, _profile.birthDate);\n  }\n\n  function setProfileInfo(\n    string name,\n    uint birthDate,\n    string city, \n    string gender\n  ) public onlyOwner {\n    _profile.name = name;\n    _profile.birthDate = birthDate;\n    _profile.city = city;\n    _profile.gender = gender;\n\n    emit UserProfileUpdated(name, city, gender, birthDate);\n  }\n\n  function createPolicy(\n    uint currentTime,\n    uint duration,\n    uint premium,\n    uint compensation\n  ) public onlyOwner {\n    require(_policy == 0x0000000000000000000000000000000000000000, \"You already have a policy!\");\n\n    Policy policy = new Policy(\n      msg.sender,\n      address(this),\n      currentTime,\n      currentTime + duration,\n      premium,\n      compensation,\n      fund\n    );\n\n    _policy = policy;\n\n    emit PolicyCreated(policy);\n  }\n\n  function getPolicy() public view onlyOwner havePolicy returns(Policy) {\n    return _policy;\n  }\n\n  function cancelPolicy() external onlyOwner havePolicy {\n    Policy tmp = _policy;\n\n    delete _policy;\n\n    tmp.cancel();\n  }\n\n  function payPremium() external payable onlyOwner havePolicy {\n    _policy.payPremium.value(msg.value)();\n  }\n\n  function reportInsuredEvent() external onlyOwner havePolicy {\n    Policy tmp = _policy;\n\n    delete _policy;\n\n    tmp.reportInsuredEvent();\n  }\n}",
  "sourcePath": "/Users/yurakulynych/Documents/study/mutual-insurance/contracts/User.sol",
  "compiler": {
    "name": "solc",
    "version": "0.4.24+commit.e67f0147.Emscripten.clang"
  },
  "schemaVersion": "2.0.1",
  "updatedAt": "2018-11-04T17:40:44.133Z"
}